:020000040800F2
:1000000000080020D1020008531A0108531A010801
:1000100093260108531A0108531A0108531A0108BC
:10002000531A0108531A0108531A0108531A0108F8
:10003000531A0108531A0108531A0108F1BC0008A9
:10004000531A0108531A0108531A0108531A0108D8
:10005000531A0108531A0108531A0108531A0108C8
:10006000531A0108918A0008531A0108531A01080B
:10007000D59F0008531A0108531A0108531A0108A2
:10008000531A0108531A0108531A0108531A010898
:10009000531A010821AA0008531A0108531A01082B
:1000A000531A0108951B01086D1B0108531A01081A
:1000B000531A0108990D010845180108D14101089A
:1000C000CD410108D50F0108E7410108D5410108DC
:1000D00015180108D941010885180108ED18010813
:1000E000531A0108531A01085DBE0008531A01088B
:1000F000531A0108531A0108531A0108531A010828
:10010000531A0108531A0108531A0108531A010817
:10011000531A0108531A0108531A0108531A010807
:10012000531A0108531A0108531A0108531A0108F7
:10013000531A0108531A0108531A0108531A0108E7
:10014000531A0108531A0108531A0108531A0108D7
:1001500065FC0008531A0108BB410108C1410108B0
:10016000531A0108531A0108531A0108531A0108B7
:100170000348044B834202D0034B03B11847704736
:10018000E4310120E431012000000000064B074962
:10019000C91A891048BF0131491003D0044B0BB173
:1001A00001481847704700BFE4310120E4310120C5
:1001B0000000000010B5064C237843B9FFF7D8FFC4
:1001C000044B13B10448AFF300800123237010BD2A
:1001D000FC2201200000000098B4010808B5054B7E
:1001E0001BB105490548AFF30080BDE80840FFF7A3
:1001F000CDBF00BF000000003039002098B40108D6
:10020000A3F5803A704700BF174B002B08BF134B74
:100210009D46FFF7F5FF00218B460F461348144A11
:10022000121A13F042F90E4B002B00D098470D4BD9
:10023000002B00D098470020002104000D000D483D
:10024000002802D00C48AFF300800CF02DF92000FC
:10025000290012F018FB0CF015F800BF0000080090
:10026000000000000000000000080020000800203E
:10027000402301200000000000000000BFF34F8F6A
:1002800000BF064BDB6803F4E0620449044B1343F0
:10029000CB60BFF34F8F00BF00BFFDE700ED00E074
:1002A0000400FA0500B583B0064A074BD31A9B1029
:1002B0000193019A0549044811F0B5FB00BF03B052
:1002C0005DF804FB80010008800100084023012044
:1002D00000B587B0244B0193019B83F30A8800BFCC
:1002E00000F04CF8FFF7DEFF204B059319E00023E8
:1002F00004930EE0059B1A68049B9B001A44059B1F
:100300005968049B9B000B4412681A60049B0133DC
:100310000493059B9B68049A9A42EBD3059B0C338C
:100320000593059B124A9342E1D3124B039314E0C9
:100330000023029309E0039B1A68029B9B0013446D
:1003400000221A60029B01330293039B5B68029AAE
:100350009A42F0D3039B08330393039B064A9342CC
:10036000E6D3FFF751FF00BF00000020A0B4010852
:10037000ACB40108ACB40108ACB4010808B51D4B1D
:100380001D4A9A601B4BD3F888301A4A43F4700315
:10039000C2F88830194B03F580531A464FF4804356
:1003A0009366174B03F500531A464FF0FF3313665D
:1003B000134B03F500531A46124B5366124B02229D
:1003C0001A60BFF34F8F00BFBFF36F8F00BF0020D5
:1003D00004F066FF0A4B03F500531A464FF440330E
:1003E000D360002012F0D9F8054B4FF440321A6167
:1003F00000BF08BD00ED00E00000000800800050D4
:1004000000800044F7FF3700D0ED00E082B001909B
:10041000024A019B136000BF02B0704754230120C1
:1004200000B583B00190074A019B1360064B1B6F18
:1004300003F00703032B01D113F0DAFE00BF03B072
:100440005DF804FB4C2301200080005008B50F48E4
:1004500014F092F9192004F005FF0346002B05D093
:10046000192004F01DFF192012F097F81A2004F04B
:10047000F9FE0346002B05D01A2004F011FF1A20C4
:1004800012F08BF80023184608BD00BF184A010877
:1004900000B587B003900291009313468DF80730A2
:1004A000039B002B02D0029B002B01D1222391E061
:1004B000039B1B78002B14D0039B1B78012B0ED0C1
:1004C000039B1B78022B07D0039B1B78032B01D1C6
:1004D0003F2308E0002306E040F2FF3303E03F2320
:1004E00001E040F2FF33039A5278D34003F0010356
:1004F000002B05D1039B1B78FF2B01D0212369E042
:100500009DF80730002B0DD09DF80730012B09D046
:100510009DF80730022B05D09DF80730042B01D041
:10052000212357E014F0DBF80590039B1B78FF2B89
:100530000AD0029B1B689DF807201946039804F017
:10054000B7F80246029B1A60029B1B68B3F1FF3F9B
:100550000FD1039B1B78FF2B0BD104F091F8049073
:10056000039B5B780499184611F062FF0246029BD8
:100570001A60029B1B68B3F1FF3F22D0029B1A68EE
:10058000164913465B0013449B000B440433009A46
:100590001A60029B1A68114913465B0013449B00C2
:1005A0000B440833089A1A60039B1B78FF2B0DD06D
:1005B000029B1B68012202FA03F3184604F036F886
:1005C00004E0059814F07DF82D2303E0059814F05D
:1005D00078F80023184607B05DF804FB483900207E
:1005E00000B585B00190019BB3F1FF3F05D0019BA1
:1005F0000F2B02DC019B002B01DA212328E014F0F1
:100600006EF803900122019B02FA03F3184604F0EE
:1006100029F80122019B02FA03F3184604F014F8AA
:100620000D49019A13465B0013449B000B440433AD
:1006300000221A600849019A13465B0013449B008C
:100640000B44083300221A60039814F03AF8002390
:10065000184605B05DF804FB4839002000B587B0A6
:10066000019034E0019811F0F6F905900122059B04
:1006700002FA03F3DB43019A13400193059B0F2B0E
:1006800008D8059A13465B0013449B00144A134490
:1006900004930EE0059BA3F1100213465B00134484
:1006A0009B00B0330E4A134404330493059B103B64
:1006B0000593049B5B68002B09D0049B5B68039344
:1006C000059BDAB2049B9968039B10469847019BEF
:1006D000002BC7D100BF00BF07B05DF804FB00BF0F
:1006E0004839002008B500BF0421044811F07FFA02
:1006F0000346002BF8D100BF00BF08BD8440005066
:1007000008B5FFF7EFFF044BD3F884309B0903F0E3
:100710000303DBB2184608BD00400050034B5B6A80
:10072000024A43F00103536200BF704700C0075004
:10073000034B5B6A024A23F00103536200BF704718
:1007400000C00750054BDB6903F48033002B14BF56
:1007500001230023DBB21846704700BF000003509E
:10076000024B0022DA6300BF704700BF0000035055
:10077000024B41F67132DA6300BF7047000003504C
:10078000014B5B68184670470000035082B001902F
:10079000024A019B536000BF02B070470000035043
:1007A00084B0019000230393019BB3F5607F21D0B7
:1007B000019BB3F5607F34D8019BB3F5207F29D02E
:1007C000019BB3F5207F2CD8019BB3F5007F19D096
:1007D000019BB3F5007F24D8019B002B03D0019B24
:1007E000B3F5C07F1DD1124B1B6F1B0B03F00F0322
:1007F000039317E00E4BD3F880301B0903F003037B
:1008000003930FE00A4BD3F890301B0E03F01F0345
:10081000039307E0064B1B6F9B0A03F0010303934E
:1008200000E000BF039B0133184604B0704700BFCF
:100830000080005010B584B001900091019BB3F589
:10084000607F4ED0019BB3F5607F00F2A280019BD8
:10085000B3F5207F00F08D80019BB3F5207F00F27F
:100860009880019BB3F5007F71D0019BB3F5007FA9
:1008700000F28F80019B002B04D0019BB3F5C07F59
:1008800040F08780009B012B0AD0009B022B07D0F1
:10089000009B042B04D0009B082B01D0009B102B45
:1008A00011F0E8F911F0DEF902F0F0F83C4B1B6FA3
:1008B00023F47042009B013B1B03394913430B6730
:1008C00013F025FF0446FFF71BFF0346C3F10203A5
:1008D0001946204611F0B2F902F058FC02F0E2F895
:1008E0005AE0304BDB6803F08073002B14BF012308
:1008F00000238DF80F309DF80F30002B05D0294BC9
:10090000DB68284A23F08073D360009B012B07D05B
:10091000009B022B04D0009B032B01D0009B042BD7
:100920001F4BD3F8803023F03002009B013B1B01AA
:100930001B491343C1F880309DF80F30002B2AD09B
:10094000184BDB68174A43F08073D36023E0009BA9
:10095000002B01D0009B202B114BD3F8903023F0BB
:10096000F852009B013B1B060D491343C1F8903020
:1009700012E0009B012B01D0009B022B084B1B6F48
:1009800023F48062009B013B9B02054913430B67E4
:1009900002E000BF00E000BF00BF04B010BD00BF18
:1009A00000800050F0ED00E000B585B001900B46EE
:1009B0008DF8033000230393019B5B09002B0CD0BF
:1009C000019B5B09012B02D10B4B039305E0019BBB
:1009D0005B09022B01D1094B0393019B03F01F0319
:1009E00002939DF803301A460299039811F0E6F835
:1009F00000BF05B05DF804FB6480005068800050C3
:100A000010B584B001900023039300230293019B4F
:100A1000B3F5486F00F03383019BB3F5486F00F2E4
:100A20004683019BB3F5406F00F0F982019BB3F55B
:100A3000406F00F23C83019BB3F5286F00F02583E3
:100A4000019BB3F5286F00F23283019BB3F5206F51
:100A500000F00F83019BB3F5206F00F22883019B08
:100A6000B3F5106F00F0F982019BB3F5106F00F23F
:100A70001E83019BB3F5086F00F01383019BB3F550
:100A8000086F00F21483019BB3F5F06F00F003834D
:100A9000019BB3F5F06F00F20A83019BB3F5E06FA1
:100AA00000F0E182019BB3F5E06F00F20083019B4F
:100AB000B3F5D06F00F0CB82019BB3F5D06F00F29D
:100AC000F682019BB3F5C06F00F0BB82019BB3F5CA
:100AD000C06F00F2EC82019BB3F5B06F00F0A5820D
:100AE000019BB3F5B06F00F2E282019BB3F5A06FFA
:100AF00000F08F82019BB3F5A06F00F2D882019BBA
:100B0000B3F5806F00F07F82019BB3F5806F00F238
:100B1000CE82019BB3F5607F00F06682019BB3F546
:100B2000607F00F2C482019BB3F5407F00F04F82EA
:100B3000019BB3F5407F00F2BA82019BB3F5207FA1
:100B400000F03982019BB3F5207F00F2B082019B57
:100B5000B3F5007F00F02382019BB3F5007F00F224
:100B6000A682019BB3F5807F00F20A82019BB3F558
:100B7000807F00F29C8201A252F823F0950F0008BA
:100B8000AF100008AF100008AF100008AF10000849
:100B9000AF100008AF100008AF100008AF10000839
:100BA000AF100008AF100008AF100008AF10000829
:100BB000AF100008AF100008AF100008AF10000819
:100BC000AF100008AF100008AF100008AF10000809
:100BD000AF100008AF100008AF100008AF100008F9
:100BE000AF100008AF100008AF100008AF100008E9
:100BF000AF100008AF100008AF100008950F0008F4
:100C0000B70F0008950F0008B70F0008071000087D
:100C10000710000807100008071000080710000858
:100C2000B70F00082B100008CF0F00084310000872
:100C30004F100008CF0F0008B70F0008B70F0008CB
:100C4000B70F0008AF100008AF100008AF10000881
:100C5000AF100008AF100008AF100008AF10000878
:100C6000AF100008B70F0008B70F0008B70F000853
:100C70009710000867100008B70F0008AF100008B1
:100C8000AF100008AF100008AF100008AF10000848
:100C9000AF100008AF100008AF100008AF10000838
:100CA000AF100008AF100008AF100008AF10000828
:100CB00007100008950F0008950F0008950F000811
:100CC0005B100008CF0F0008CF0F0008731000085A
:100CD0008B100008131000081F100008AF10000848
:100CE000AF100008AF100008AF100008AF100008E8
:100CF0007F100008950F0008AF100008AF10000823
:100D0000AF100008AF100008AF100008AF100008C7
:100D1000AF100008AF100008AF100008AF100008B7
:100D2000AF100008AF100008AF100008AF100008A7
:100D3000AF100008AF100008AF100008AF10000897
:100D4000AF100008AF100008AF100008AF10000887
:100D5000AF100008AF100008AF100008AF10000877
:100D6000AF100008AF100008AF100008AF10000867
:100D7000AF100008AF100008AF1000088B0F00087C
:100D8000AF100008AF100008AF100008AF10000847
:100D9000AF100008AF100008AF100008AF10000837
:100DA000AF100008AF100008AF100008AF10000827
:100DB000AF100008AF100008AF100008AF10000817
:100DC000AF100008AF100008AF100008AF10000807
:100DD000AF100008AF100008AF100008AF100008F7
:100DE000AF100008AF100008AF100008AF100008E7
:100DF000AF100008AF100008AF100008AF100008D7
:100E0000AF100008AF100008AF100008AF100008C6
:100E1000AF100008AF100008AF100008AF100008B6
:100E2000AF100008AF100008AF100008AF100008A6
:100E3000AF100008AF100008AF100008AF10000896
:100E4000AF100008AF100008AF100008AF10000886
:100E5000AF100008AF100008AF100008AF10000876
:100E6000AF100008AF100008AF100008AF10000866
:100E7000AF100008AF100008AF100008AF10000856
:100E8000AF100008AF100008AF100008AF10000846
:100E9000AF100008AF100008AF100008AF10000836
:100EA000AF100008AF100008AF100008AF10000826
:100EB000AF100008AF100008AF100008AF10000816
:100EC000AF100008AF100008AF100008AF10000806
:100ED000AF100008AF100008AF100008AF100008F6
:100EE000AF100008AF100008AF100008AF100008E6
:100EF000AF100008AF100008AF100008AF100008D6
:100F0000AF100008AF100008AF100008AF100008C5
:100F1000AF100008AF100008AF100008AF100008B5
:100F2000AF100008AF100008AF100008AF100008A5
:100F3000AF100008AF100008AF100008AF10000895
:100F4000AF100008AF100008AF100008AF10000885
:100F5000AF100008AF100008AF100008AF10000875
:100F6000AF100008AF100008AF100008AF10000865
:100F7000AF100008AF100008AF10000837100008CD
:100F8000019BB3F5C07F05D091E013F055F90346FE
:100F900003938DE013F02CF90346039388E013F0DC
:100FA0004BF904464FF40070FFF7FAFB0346B4FB1D
:100FB000F3F303937CE013F01BF904464FF4207025
:100FC000FFF7EEFB0346B4FBF3F3039370E013F07B
:100FD0000FF904464FF42070FFF7E2FB0346B4FB21
:100FE000F3F35B08039363E002AB0021184601F0C2
:100FF000F9FD029C4FF46070FFF7D2FB0346B4FB8F
:10100000F3F3039354E003AB0021184601F068FEAC
:101010004EE003AB0021184601F0C2FB48E003ABF1
:101020000021184601F00CFC42E003AB00211846F9
:1010300002F06CF83CE003AB0021184602F09AF98C
:1010400036E003AB0021184601F0A4FE30E003AB0C
:101050000021184602F0F6F82AE003AB00211846FA
:1010600002F03CF924E003AB0021184602F0A8F896
:101070001EE003AB0021184601F03AFC18E003AB78
:101080000021184601F082FC12E003AB0021184653
:1010900001F0CAFC0CE003AB0021184601F0BCFED5
:1010A00006E003AB0021184601F0D8FD00E000BFC8
:1010B000039B184604B010BD00B585B00190002315
:1010C0000393019BB3F5486F00F0C881019BB3F512
:1010D000486F00F2CF81019BB3F5406F00F0AC8107
:1010E000019BB3F5406F00F2C581019BB3F5286FFA
:1010F00000F0BA81019BB3F5286F00F2BB81019B20
:10110000B3F5206F00F0A481019BB3F5206F00F2CE
:10111000B181019BB3F5106F00F07681019BB3F5AF
:10112000106F00F2A781019BB3F5086F00F0728188
:10113000019BB3F5086F00F29D81019BB3F5F06F41
:1011400000F05681019BB3F5F06F00F29381019B93
:10115000B3F5E06F00F07681019BB3F5E06F00F22C
:101160008981019BB3F5D06F00F04881019BB3F5F5
:10117000D06F00F27F81019BB3F5C06F00F0328128
:10118000019BB3F5C06F00F27581019BB3F5B06FA1
:1011900000F01681019BB3F5B06F00F26B81019BEB
:1011A000B3F5A06F00F04281019BB3F5A06F00F290
:1011B0006181019BB3F5806F00F00881019BB3F55D
:1011C000806F00F25781019BB3F5607F00F02881AA
:1011D000019BB3F5607F00F24D81019B802B00F2F3
:1011E000C780019B242BC0F04581019B243B5C2BD5
:1011F00000F2408101A252F823F000BFCD13000895
:10120000CD130008CD130008CD130008CD1300083E
:1012100075140008C113000875140008E5130008D0
:10122000FD130008751400087514000875140008F3
:10123000751400087514000875140008751400086A
:10124000751400087514000875140008751400085A
:10125000751400087514000875140008751400084A
:10126000F1130008451400087514000875140008EF
:10127000751400087514000875140008751400082A
:10128000751400087514000875140008751400081A
:10129000751400087514000875140008751400080A
:1012A000CD130008751400087514000875140008A3
:1012B000091400087514000875140008511400087A
:1012C000691400082D14000839140008751400086A
:1012D00075140008751400087514000875140008CA
:1012E0005D140008751400087514000875140008D2
:1012F00075140008751400087514000875140008AA
:101300007514000875140008751400087514000899
:101310007514000875140008751400087514000889
:101320007514000875140008751400087514000879
:101330007514000875140008751400087514000869
:101340007514000875140008751400087514000859
:101350007514000875140008751400087514000849
:101360007514000875140008751400087B13000834
:10137000019BB3F5807F2FD07CE0414B1B6F03F0C6
:101380000703013B032B17D801A252F823F000BF3B
:10139000B3130008A1130008A7130008AD13000839
:1013A000052303930BE00323039308E0082303932F
:1013B00005E00223039302E00023039300BF5AE0F9
:1013C00003AB1946002001F0A1FE54E003AB19461F
:1013D000002001F085FC4EE003AB1946002001F02F
:1013E000C9FF48E003AB1946002001F0D3FC42E0FE
:1013F00003AB1946002001F00FFD3CE003AB19469A
:10140000002001F01FFF36E003AB1946002001F079
:1014100065FF30E003AB1946002001F01FFC2AE015
:1014200003AB1946002001F0DDFB24E003AB1946B5
:10143000002001F0B5F91EE003AB1946002001F0D1
:10144000FFF918E003AB1946002001F0B9FE12E0E5
:1014500003AB1946002001F04BFA0CE003AB194630
:10146000002001F093FA06E003AB1946002001F0DA
:10147000DBFA00E000BF039B184605B05DF804FBF3
:101480000080005008B50121022002F01DF84FF441
:101490002070FFF785F90346DAB2054B1A7010F099
:1014A000E9FB10F0DFFB01F0F1FA00BF08BD00BF5F
:1014B000FD22012010B582B003468DF8073013F0ED
:1014C00026F90446FFF71CF90346C3F10203194647
:1014D000204610F0B3FB0121002001F0C7FF9DF86A
:1014E0000730002B02D001F051FE06E0054B1B78BF
:1014F00019464FF42070FFF79DF901F0D3FA00BFB1
:1015000002B010BDFD22012000B583B0104B5B6E10
:1015100003F48033002B0CBF012300238DF8073028
:101520000B4B03F580531A464FF480335366FFF795
:10153000FFF89DF80730002B06D0054B03F500534C
:101540001A464FF48033536600BF03B05DF804FBC6
:101550000080005010B584B00190009100230393E7
:1015600000238DF80B3000238DF80A30019BB3F572
:10157000486F00F0ED84019BB3F5486F00F24085A1
:10158000019BB3F5406F00F03684019BB3F5406FCB
:1015900000F23685019BB3F5286F00F01985019B99
:1015A000B3F5286F00F22C85019BB3F5206F00F096
:1015B0008F84019BB3F5206F00F22285019BB3F568
:1015C000106F00F02083019BB3F5106F00F21885B7
:1015D000019BB3F5086F00F05683019BB3F5086FCC
:1015E00000F20E85019BB3F5F06F00F09382019B32
:1015F000B3F5F06F00F20485019BB3F5E06F00F0E6
:101600002F84019BB3F5E06F00F2FA84019BB3F5E0
:10161000D06F00F0B782019BB3F5D06F00F2F08479
:10162000019BB3F5C06F00F03782019BB3F5C06F2B
:1016300000F2E684019BB3F5B06F00F07081019B6E
:10164000B3F5B06F00F2DC84019BB3F5A06F00F03E
:101650008C83019BB3F5A06F00F2D284019BB3F59C
:10166000806F00F07E81019BB3F5806F00F2C8842B
:10167000019BB3F5607F00F03783019BB3F5607F7A
:1016800000F2BE84019B802B00F2C680019B242BBC
:10169000C0F0B684019B243B5C2B00F2B18401A214
:1016A00052F823F063190008631900086319000851
:1016B0006319000863190008012000081F190008B9
:1016C00001200008991A0008851B00080120000865
:1016D0000120000801200008012000080120000866
:1016E0000120000801200008012000080120000856
:1016F0000120000801200008012000080120000846
:101700000120000801200008151B0008611E0008C8
:101710000120000801200008012000080120000825
:101720000120000801200008012000080120000815
:101730000120000801200008012000080120000805
:10174000012000080120000863190008012000089A
:101750000120000801200008071C000801200008E3
:1017600001200008D11E0008D11F00086B1D0008D1
:10177000F71D0008012000080120000801200008D2
:101780000120000801200008511F00080120000866
:1017900001200008012000080120000801200008A5
:1017A0000120000801200008012000080120000895
:1017B0000120000801200008012000080120000885
:1017C0000120000801200008012000080120000875
:1017D0000120000801200008012000080120000865
:1017E0000120000801200008012000080120000855
:1017F0000120000801200008012000080120000845
:101800000120000801200008012000080120000834
:101810000120000825180008019BB3F5807F00F027
:10182000D680EDE3009B023B062B35D801A252F88F
:1018300023F000BF931800085718000899180008F3
:101840005118000899180008991800088D18000808
:101850000223039321E003230393AB4B03F580534F
:101860001A464FF480135366A84B9B6A03F08073AB
:10187000002B14BF012300238DF80B30A34B03F57D
:1018800080531A464FF48033936206E00423039397
:1018900003E00123039300E000BF0121022001F0D7
:1018A00013FE10F0E7F910F0DDF901F0EFF8964BB8
:1018B0001B6F23F007029449039B13430B6712F03D
:1018C00026FF0446FEF71CFF0346C3F10203194638
:1018D000204610F0B3F90121002001F0C7FD01F00E
:1018E00055FC01F0DFF89DF80B3083F00103DBB20B
:1018F000002B00F08783009B032B0ED1834B03F555
:1019000000531A464FF48033936200BF7F4B9B6DA8
:1019100003F08043002BF9D100E000BF72E3009B8D
:10192000102B09D0009B102B0FD8009B022B09D045
:10193000009B072B03D008E00123039306E0032359
:10194000039303E00223039300E000BF6E4BD3F840
:10195000803123F003026C49039B1343C1F88031AB
:1019600053E3009B013B062B25D801A252F823F03C
:10197000A51900089F19000893190008B11900085B
:101980008D190008AB190008991900080123039369
:1019900012E0022303930FE0042303930CE00323DC
:1019A000039309E00023039306E00523039303E078
:1019B0000623039300E000BF534BD3F8203123F0FC
:1019C00007025149039B1343C1F820311DE3009BDB
:1019D000093B082B5ED801A252F823F0011A000837
:1019E000011A0008951A0008011A00084B1A00088D
:1019F000951A0008951A0008951A0008011A00089F
:101A0000414B5B6E03F48033002B0CBF012300239A
:101A10008DF80A303C4B03F580531A464FF480335F
:101A20005366FEF77BFE9DF80A30002B06D0364B3E
:101A300003F500531A464FF480335366344B1B684A
:101A4000334A23F00403136025E02F4B5B6E03F44D
:101A50008033002B0CBF012300238DF80A302A4B62
:101A600003F580531A464FF480335366FEF760FE49
:101A70009DF80A30002B06D0234B03F500531A467D
:101A80004FF480335366224B1B68214A43F0040312
:101A9000136000E000BFB8E2009B013B0B2B27D88E
:101AA00001A252F823F000BFEB1A0008F11A000857
:101AB000F11A0008F11A0008F11A0008F11A0008DA
:101AC000F11A0008F11A0008DF1A0008D91A0008F4
:101AD000D91A0008E51A00080123039309E002233C
:101AE000039306E00323039303E00023039300E042
:101AF00000BF054BD3F8403123F003020249039B9A
:101B00001343C1F8403180E2008000500040005A89
:101B100010E000E0009B013B0B2B27D801A252F8FC
:101B200023F000BF671B00086D1B00086D1B000839
:101B30006D1B00086D1B00086D1B00086D1B000865
:101B40006D1B00085B1B0008551B0008551B000897
:101B5000611B00080123039309E00223039306E0BD
:101B60000323039303E00023039300E000BFB44B7F
:101B7000D3F8603123F00302B149039B1343C1F84A
:101B8000603142E2009B013B0E2B30D801A252F89B
:101B900023F000BFE91B0008EF1B0008EF1B000843
:101BA000EF1B0008EF1B0008EF1B0008EF1B0008ED
:101BB000EF1B0008D71B0008D11B0008D11B000831
:101BC000DD1B0008EF1B0008EF1B0008E31B0008EB
:101BD000012303930CE00223039309E003230393FF
:101BE00006E00423039303E00023039300E000BF17
:101BF000934BD3F8003223F007029149039B134320
:101C0000C1F8003201E2009B013B0E2B2FD801A24C
:101C100052F823F0691C00086F1C00086F1C0008B4
:101C20006F1C00086F1C00086F1C00086F1C000868
:101C30006F1C0008571C0008511C0008511C0008AC
:101C40005D1C00086F1C00086F1C0008631C000866
:101C5000012303930CE00223039309E0032303937E
:101C600006E00423039303E00023039300E000BF96
:101C7000734BD3F8083223F007027149039B1343D7
:101C8000C1F80832C1E1009B013B082B20D801A21A
:101C900052F823F0CB1C0008D11C0008B91C000826
:101CA000D11C0008D11C0008D11C0008D11C000860
:101CB000C51C0008BF1C00080123039309E0022390
:101CC000039306E00323039303E00023039300E060
:101CD00000BF5B4BD3F8003123F003025849039B4C
:101CE0001343C1F8003190E1564BDB6803F0807379
:101CF000002B14BF012300238DF809309DF8093013
:101D0000002B05D04F4BDB684E4A23F08073D36025
:101D1000009B0E2B09D0009B0E2B0FD8009B062B8F
:101D200006D0009B072B06D008E00123039306E0B2
:101D30000323039303E00223039300E000BF404B1F
:101D4000D3F8803023F003023D49039B1343C1F8CD
:101D500080309DF80930002B00F05681394BDB684C
:101D6000384A43F08073D3604EE1009B013B112B56
:101D700035D801A252F823F0D91D0008DF1D000854
:101D8000DF1D0008DF1D0008DF1D0008DF1D000843
:101D9000C71D0008DF1D0008D31D0008CD1D000869
:101DA000CD1D0008DF1D0008DF1D0008DF1D000835
:101DB000DF1D0008DF1D0008DF1D0008C11D000831
:101DC000012303930CE00223039309E0032303930D
:101DD00006E00423039303E00023039300E000BF25
:101DE000174BD3F8203223F007021549039B134306
:101DF000C1F8203209E1009B023B052B24D801A247
:101E000052F823F02F1E0008351E00083B1E000864
:101E10001D1E0008231E0008291E0008012303932D
:101E200013E00523039310E0042303930DE0032341
:101E300003930AE00223039307E00623039304E0DD
:101E400000800050F0ED00E000BF714BD3F8283166
:101E500023F007026E49039B1343C1F82831D4E0F5
:101E6000009B013B0B2B27D801A252F823F000BFA7
:101E7000B31E0008B91E0008B91E0008B91E0008EC
:101E8000B91E0008B91E0008B91E0008B91E0008D6
:101E9000A71E0008A11E0008A11E0008AD1E000814
:101EA0000123039309E00223039306E00323039332
:101EB00003E00023039300E000BF554BD3F840320A
:101EC00023F003025249039B1343C1F840329CE0C4
:101ED000009B023B0F2B2FD801A252F823F000BF2A
:101EE000211F0008391F0008391F0008391F00088A
:101EF000391F0008271F0008391F0008391F000874
:101F0000391F0008391F0008391F0008391F000851
:101F1000391F0008391F00082D1F0008331F000853
:101F20000323039309E00423039306E001230393AF
:101F300003E00223039300E000BF354BD3F8603287
:101F400023F007023249039B1343C1F860325CE07F
:101F5000009B023B0F2B2FD801A252F823F000BFA9
:101F6000A11F0008B91F0008B91F0008B91F000809
:101F7000B91F0008A71F0008B91F0008B91F0008F3
:101F8000B91F0008B91F0008B91F0008B91F0008D1
:101F9000B91F0008B91F0008AD1F0008B31F0008D3
:101FA0000323039309E00423039306E0012303932F
:101FB00003E00223039300E000BF154BD3F89432F3
:101FC00023F007021249039B1343C1F894321CE02B
:101FD000009B112B03D0009B152B03D005E00123A0
:101FE000039302E00223039300BF094BD3F870323E
:101FF00023F003020649039B1343C1F8703204E047
:1020000000BF02E000BF00E000BF00BF04B010BD91
:102010000080005000B58FB0019000230D93002385
:102020008DF82F30002309930023089300238DF8A7
:102030001F30A84B03F580531A464FF4C023536654
:10204000A54B5B6803F00103002B14BF01230023A1
:102050008DF81E30A04B03F500531A460123536040
:1020600000BF9D4B5B6803F00203002BF9D1FEF724
:1020700047FB0346012B06D1019B1B68974A9342FD
:1020800001D9002336E100230C9318E0019B1A6864
:1020900093490C9B1B010B441B689A420CD3019B78
:1020A0001A688F490C9B1B010B4404331B689A422E
:1020B00002D80C9B0D9305E00C9B01330C930C9BF9
:1020C000182BE3D90D9B192B01D1002312E1844A6F
:1020D0000D9B1B01134408331B680A93804A0D9B18
:1020E0001B0113440C331B68002B10D07C4A0D9B42
:1020F0001B0113440C331B68184600F031FF0346E4
:1021000003F07F0306930A9A069B13430A938020E9
:10211000FEF7D2FF0346052B22D10FF0ABFD0FF0E7
:10212000A1FD00F0B3FC4FF4C070FEF739FB08903E
:1021300001238DF82F30089B012B05D102214FF48C
:10214000C070FEF777FB0BE0089B022B05D1042142
:102150004FF4C070FEF76EFB02E000238DF82F30C5
:1021600000BF604BDB6803F00603002BF9D15D4B29
:102170009B6805935B4A0A9B93600A9B03F4F813E0
:102180000493584B9B6803F4F8130393049A039B3E
:102190009A4250D1019B9B881B04019AD288114618
:1021A0004D4A0B43D360019B9B68032B0AD1494BDB
:1021B000D3F8003123F00303464A43F00103C2F889
:1021C00000311AE0019B9B68092B0AD1414BD3F8DF
:1021D000003123F003033F4A43F00203C2F8003109
:1021E0000BE0019B9B68082B07D13A4BD3F80031D9
:1021F000384A43F00303C2F80031019B1B7D002BDA
:1022000001D0042200E00022019B5B7D002B01D065
:10221000402300E000231A43019B1B7B5B001A4311
:10222000019B1B692C4913438B60019B1B6818465B
:10223000FEF7ECF805E001238DF81F30294A059BD5
:1022400093609DF81F3083F00103DBB2002B03D1B4
:102250009DF81E30002B14D01F4B03F500531A4677
:10226000072313611C4B03F580531A460123536067
:1022700000BF194B1B6903F007030993099B002B4F
:10228000F7D08020FEF718FF0346052B1CD19DF8E0
:102290002F30002B04D008994FF4C070FEF7CAFA13
:1022A00012F035FA029011F0C1FF11F0BFFFFEF7F6
:1022B00027FA0346C3F10203194602980FF0BEFC49
:1022C00000F064FF00F0EEFB9DF81F30002B0BD0F8
:1022D00000230FE00080005000C00150005A62024D
:1022E000B847010800000150099B012B01D10123CF
:1022F00000E0002318460FB05DF804FB00B585B080
:1023000001908020FEF7D8FE0346032B00F00C81DD
:10231000874B03F580531A464FF480135366854B61
:1023200045F60E02C3F88020824B03F580531A460F
:102330004FF0A06393627F4B03F500531A464FF4AE
:102340008033936200BF7B4B9B6D03F48033002B83
:10235000F9D100BF774B9B6D03F08043002BF9D17F
:10236000019B1B681A06019B5B681B051A43019BB6
:102370001B7B1B041A43019B5B7B1B031A43019BC2
:102380009B7B9B011343019AD27B1146694A0B4305
:102390001361684B9B6903F00042019B1B699B061C
:1023A0001A43019B5B691B061A43019B1B7E1B049E
:1023B0001A43019B5B7E1B021343019A927E1146D6
:1023C0005C4A0B4393615B4B1B6A23F00F03019A3A
:1023D000D269002A01D1002200E008221A43019BA1
:1023E000DB7E9B001A43019BDB69524913430B625E
:1023F000019BDB69002B5CD14E4B9A6A4E4B13401C
:10240000019A92F8202052011A43019B93F821303F
:102410001B011A43019B93F82430DB001343454A08
:1024200043F48033936200BF424B9A6D434B134099
:10243000424A9342F8D13F4B03F580531A464FF07E
:10244000807393623B4B1B6923F47002019B9B6872
:102450001B05384913430B61364B03F580531A466D
:102460004FF000439361019B93F8223083F0010306
:10247000DBB2002B06D02F4B03F500531A464FF06A
:1024800080739362019B93F8233083F00103DBB2E6
:10249000002B3FD0274B03F500531A464FF48033EF
:1024A000936200BF234B9B6D03F08043002BF9D157
:1024B00030E0019BDB69022B12D11E4B00221A6116
:1024C0001C4B00229A6102230393039B1A03039B74
:1024D0001B0213431A464FF47F4119480FF094FB37
:1024E000144B9A6A144B1340019A92F8202052011F
:1024F0001A43019B93F822301B061A43019B93F861
:102500002430DB001A43019B93F823301B04094954
:1025100013438B62019B93F82530002B05D0054BAC
:10252000084AC3F8802000E000BF05B05DF804FB56
:10253000008000500040005AC7FFFEFE030001006B
:102540003440005AF1A7FFFF024B93F900301846C0
:10255000704700BFD231012084B001904F23039314
:10256000019B5B788DF80B309DF80B20039B934209
:1025700028BF13468DF80A30284B03F580531A46BE
:102580004FF400035366264B4FF4D1525A62244B4A
:1025900003F580531A4602235360214B03F5005381
:1025A0001A460123536000BF1D4B1B6903F480339F
:1025B000002BF9D1019B1B781A029DF80A301849AB
:1025C00013434B61019B5B681A02019B9B681B01D3
:1025D0001A43019B1B7B5B001343019A527B1146FC
:1025E0000F4A0B439360019B9B7B5A01019BDB7B52
:1025F0001B011A43019B1B7C5B001343019A527C15
:102600001A43074B5A60019B9B7C002B03D0044B61
:102610006FF4D1525A6200BF04B07047008000507E
:102620000000025082B00346ADF80630034ABDF800
:102630000630138000BF02B0704700BFC4310120D4
:1026400082B00346ADF80630034ABDF80630138069
:1026500000BF02B0704700BFC631012000B587B08F
:1026600003468DF8073000230393002305930023CE
:102670000493274B03F580531A464FF480035366A7
:10268000244B02225A6000BF224B9B6803F4803324
:10269000002BF9D19DF80730012B2ED111F00CFE43
:1026A0000390039B1C4A934205D11C4B059345F6AE
:1026B0007A13049317E0039B194A934205D1194BEF
:1026C000059345F61A0304930DE0039A13469B0005
:1026D00013445B0A0593144B0493039B5B0A049A0F
:1026E000B2FBF3F304930B4A059BD362094A049BA4
:1026F0001363084B01225A6202E0064B00225A6221
:10270000044B00225A6000BF07B05DF804FB00BF15
:10271000008000500040025000F04902D8B8050087
:10272000C0175302BBCF05006466666600B585B06E
:102730000190019800F0CCF90390039B002B02D08C
:10274000039BB3F1FF3F134B03F580531A464FF43D
:1027500000235366039B23F040730393019B0E4AAF
:10276000934204D0019B0D4A934205D009E0039B9C
:1027700043F00073039304E0039B43F080730393DF
:1027800000BF4FF0B442039B936000BF05B05DF8FB
:1027900004FB00BF0080005040420F0080841E00F8
:1027A00000B585B00190009100230293234BD3F82C
:1027B000203203F00703042B2CD801A252F823F097
:1027C0000F280008D5270008E5270008F327000890
:1027D0000128000802AB0021184600F031F812234E
:1027E00003931AE011F074FD034602930723039349
:1027F00013E011F084FF034602930A2303930CE0D5
:1028000011F0E0FD034602930923039305E0012341
:10281000039302E00023039300BF019B002B02D02F
:10282000029A019B1A60009B002B02D0009B039A26
:102830001A6000BF05B05DF804FB00BF00800050C7
:1028400000B585B00190009100230393274BD3F886
:10285000283103F00703013B052B33D801A252F8BE
:1028600023F000BF7D280008A1280008B92800082F
:102870009528000889280008AD28000811F0D6FC2A
:1028800003900523029320E011F0D0FC039006236F
:1028900002931AE011F01CFD03900723029314E049
:1028A00011F00AFD0390032302930EE011F004FDE2
:1028B00003900423029308E011F0F8FC0390022334
:1028C000029302E00023029300BF019B002B02D081
:1028D000019B039A1A60009B002B02D0009B029A76
:1028E0001A6000BF05B05DF804FB00BF0080005017
:1028F00000B585B00190009100230293224BD3F8DC
:10290000603203F00703013B032B29D801A252F8E0
:1029100023F000BF252900083529000853290008A5
:102920004529000802AB0021184600F0D9F9102310
:10293000039318E002AB0021184600F02BFA112394
:10294000039310E011F0C4FC0346029307230393A2
:1029500009E011F0ABFC034602930223039302E06B
:102960000023039300BF019B002B02D0029A019B1E
:102970001A60009B002B02D0009B039A1A6000BFD4
:1029800005B05DF804FB00BF0080005000B585B0C5
:102990000190009100230293224BD3F8943203F06C
:1029A0000703013B032B29D801A252F823F000BFF3
:1029B000C1290008D1290008EF290008E1290008F1
:1029C00002AB0021184600F08BF91023039318E0A6
:1029D00002AB0021184600F0DDF91123039310E04B
:1029E00011F076FC034602930723039309E011F0EC
:1029F0005DFC034602930223039302E0002303934A
:102A000000BF019B002B02D0029A019B1A60009B21
:102A1000002B02D0009B039A1A6000BF05B05DF83E
:102A200004FB00BF0080005000B585B0019000910C
:102A300000230293144BD3F8703203F00303012BED
:102A400002D0022B08D00CE002AB0021184600F0A7
:102A5000A1F91123039307E00023029315230393A5
:102A600002E00023039300BF019B002B02D0029AD7
:102A7000019B1A60009B002B02D0009B039A1A60F6
:102A800000BF05B05DF804FB00800050044B03F567
:102A900080531A464FF48033136700BF704700BF5E
:102AA0000080005008B58020FDF7AAFF0346064AC3
:102AB000934206D8054B03F500531A464FF4803372
:102AC000136700BF08BD00BF005A620200800050BB
:102AD00084B0019000230393019B384A934260D055
:102AE000019B364A934261D8019B354A934253D0A9
:102AF000019B334A934259D8019B324A934246D0B4
:102B0000019B304A934251D8019B2F4A934239D0BE
:102B1000019B2D4A934249D8019B2C4A93422CD0C9
:102B2000019B2A4A934241D8019B294A93421FD0D4
:102B3000019B274A934239D8019B264A934212D0DF
:102B4000019B244A934231D8019B234A93420AD0E5
:102B5000019B214A934229D8019B002B28D0019B3D
:102B60001E4A934222D11E4BD3F8A030039320E09B
:102B70001B4BD3F8B83003931BE0194BD3F8BC3090
:102B8000039316E0164BD3F8C030039311E0144BB7
:102B9000D3F8C83003930CE0114BD3F8CC30039337
:102BA00007E00F4BD3F8D030039302E000BF00E002
:102BB00000BF039B184604B0704700BF005A620272
:102BC0000048E80180BA8C01C0EA21010024F40029
:102BD000405DC60000093D0080841E0040420F0099
:102BE0000080E00F00B585B00190009100230393B1
:102BF000194BD3F8803003F00303032B12D0032BBF
:102C000016D8012B02D0022B06D011E011F014FBD4
:102C100003900E2302930EE011F05AFB039007235A
:102C2000029308E011F002FB03900623029302E0F6
:102C30000023029300BF019B002B02D0019B039A4B
:102C40001A60009B002B02D0009B029A1A6000BF02
:102C500005B05DF804FB00BF0080005000B585B0F2
:102C600001900091002303931C4BD3F8003103F033
:102C70000303032B1FD801A252F823F0B12C000844
:102C80008D2C0008992C0008A52C000811F014FBCD
:102C900003900323029311E011F094FB03900923A6
:102CA00002930BE011F00EFB03900823029305E062
:102CB0000123029302E00023029300BF019B002B3B
:102CC00002D0019B039A1A60009B002B02D0009B4C
:102CD000029A1A6000BF05B05DF804FB0080005046
:102CE00000B585B00190009100230393284BD3F8E1
:102CF000203103F00703062B37D801A252F823F046
:102D00004D2D00081D2D0008292D0008412D00081B
:102D1000352D0008532D00085F2D000811F086FAAC
:102D200003900523029323E011F0C6FA03900323D6
:102D300002931DE011F0CCFA03900723029317E0F1
:102D400011F0B4FA03900223029311E001230293DD
:102D50000EE011F06BFA03900623029308E011F0E5
:102D6000ABFA03900423029302E00023029300BF16
:102D7000019B002B02D0019B039A1A60009B002B41
:102D800002D0009B029A1A6000BF05B05DF804FBF8
:102D90000080005000B585B001900091002303939E
:102DA0001C4BD3F8403103F00303032B1FD801A2BF
:102DB00052F823F0E92D0008C52D0008D12D000898
:102DC000DD2D000811F09BFC03900A23029311E013
:102DD00011F0F8FA0390092302930BE011F093FC31
:102DE00003900C23029305E00123029302E00023E9
:102DF000029300BF019B002B02D0019B039A1A6033
:102E0000009B002B02D0009B029A1A6000BF05B005
:102E10005DF804FB0080005000B585B00190009182
:102E2000002303931C4BD3F8603103F00303032BFF
:102E30001FD801A252F823F06D2E0008492E000879
:102E4000552E0008612E000811F059FC03900A234A
:102E5000029311E011F0B6FA0390092302930BE0FC
:102E600011F051FC03900C23029305E0012302931F
:102E700002E00023029300BF019B002B02D0019BC4
:102E8000039A1A60009B002B02D0009B029A1A60E2
:102E900000BF05B05DF804FB0080005084B00190D5
:102EA00000914FF440130393009B002B0AD1019B28
:102EB0000D4A934203D94FF4801303930FE000238C
:102EC00003930CE0009B002B09DD019B074A934212
:102ED00003D94FF48013039301E000230393039B72
:102EE000184604B0704700BF005A6202002D31013D
:102EF00000B585B001900091184B03F580531A4638
:102F00004FF4803393660020FDF74AFC0246019B94
:102F100002FB03F30193FDF715FC03468DF80F3018
:102F2000FDF726FCFDF72CFC034623F44013029327
:102F300000990198FFF7B2FF0246029B13430293E8
:102F40000298FDF723FC9DF80F30002B01D0FDF710
:102F500007FC00BF05B05DF804FB00BF0080005017
:102F600084B0019000230393019B594A934200F0DF
:102F7000A380019B564A934200F2A380019B554ACD
:102F8000934200F09480019B524A934200F2998050
:102F9000019B514A934200F08580019B4E4A934227
:102FA00000F28F80019B4D4A934276D0019B4B4AA1
:102FB000934200F28680019B494A934268D0019B6C
:102FC000474A93427DD8019B464A93425BD0019B7E
:102FD000444A934275D8019B434A93424ED0019B89
:102FE000414A93426DD8019B404A934242D0019B93
:102FF0003E4A934265D8019B3D4A934236D0019B9D
:103000003B4A93425DD8019B3A4A93422AD0019BA6
:10301000384A934255D8019B374A93421ED0019BB0
:10302000354A93424DD8019B344A934212D0019BBA
:10303000324A934245D8019B314A93420AD0019BC0
:103040002F4A93423DD8019B002B3CD0019B2D4A37
:10305000934236D12C4B9B6D039335E02A4B5B6E2C
:10306000039331E0284B1B6F03932DE0264B5B6FDE
:10307000039329E0244B9B6F039325E0224BD3F865
:103080008030039320E0204BD3F8843003931BE07F
:103090001D4BD3F88830039316E01B4BD3F88C30CC
:1030A000039311E0184BD3F8903003930CE0164BC8
:1030B000D3F89430039307E0134BD3F8983003937D
:1030C00002E000BF00E000BF039B184604B0704759
:1030D00000B4C4040090D003007E5603006CDC02F0
:1030E00080D543020048E80180BA8C01C0EA210182
:1030F0000024F400405DC600C0CF6A0000093D0016
:1031000080841E0040420F000080E00F00B585B0B3
:1031100001900091002302931B4BD3F8803103F000
:103120000303032B0ED0032B1AD8012B02D0022B42
:103130000FD015E002AB00211846FFF7D1FD102398
:10314000039310E011F0C4F803460293072303939E
:1031500009E011F0ABF8034602930223039302E067
:103160000023039300BF019B002B02D0029A019B16
:103170001A60009B002B02D0009B039A1A6000BFCC
:1031800005B05DF804FB00BF0080005000B583B0BF
:10319000022301934FF4C070FDF732FC0346074A47
:1031A000934201D80123019301994FF42070FDF758
:1031B00041FB00BF03B05DF804FB00BF80F0FA02E2
:1031C00000B585B001900091002303931C4BD3F808
:1031D000403203F00303032B1FD801A252F823F05F
:1031E00015320008F1310008FD31000809320008ED
:1031F00011F085FA03900A23029311E011F0E2F82E
:103200000390092302930BE011F07DFA03900C2345
:10321000029305E00123029302E00023029300BF22
:10322000019B002B02D0019B039A1A60009B002B8C
:1032300002D0009B029A1A6000BF05B05DF804FB43
:103240000080005000B585B00190009100230393E9
:10325000214BD3F8003203F00703042B29D801A235
:1032600052F823F0AD3200087932000885320008A8
:10327000913200089D32000811F041FA03900A23B0
:10328000029319E011F09EF803900923029313E0D2
:1032900011F039FA03900C2302930DE010F0A8FF0F
:1032A00003469B0A03930F23029305E00123029335
:1032B00002E00023029300BF019B002B02D0019B80
:1032C000039A1A60009B002B02D0009B029A1A609E
:1032D00000BF05B05DF804FB0080005000B585B06C
:1032E0000190009100230393214BD3F8083203F09F
:1032F0000703042B29D801A252F823F04533000814
:10330000113300081D330008293300083533000845
:1033100011F0F5F903900A23029319E011F052F825
:1033200003900923029313E011F0EDF903900C23AD
:1033300002930DE010F05CFF03469B0A03930F23FA
:10334000029305E00123029302E00023029300BFF1
:10335000019B002B02D0019B039A1A60009B002B5B
:1033600002D0009B029A1A6000BF05B05DF804FB12
:103370000080005000B585B00190009100230393B8
:10338000114B1B6803F00403002B06D010F030FF34
:10339000034603930D23029305E002AA03AB1146F3
:1033A0001846FFF7F7FC019B002B02D0039A019B04
:1033B0001A60009B002B02D0029A009B1A6000BF8B
:1033C00005B05DF804FB00BF10E000E0024B034ACB
:1033D0001A6400BF704700BF004009503254FFFF1D
:1033E000024B4AF6CD321A6400BF704700400950C4
:1033F00082B0019000BF054B5A6B019B1340002B1C
:10340000F9D100BF00BF02B0704700BF00400950B3
:1034100008B500BF042104480EF036FC0346002B1B
:10342000F8D100BF00BF08BD8440005008B5FFF7C9
:10343000EFFF044BD3F884309B0903F00303DBB2A6
:10344000184608BD0040005082B00190064BDB6E6C
:1034500023F03003019A12791146034A0B43D366D5
:1034600000BF02B0704700BF0040005000B585B0FB
:1034700001900B468DF80330019B002B03D110F017
:10348000DBFE039001E0019B03930D4B1B78002BA7
:103490000AD0039B0B4A934206D89DF80330194685
:1034A000012000F011F806E09DF8033019460220D3
:1034B00000F00AF800BF00BF05B05DF804FB00BFD4
:1034C000B03A0020005A620210B586B003460A46A0
:1034D0008DF8073013468DF80630FFF7A7FF034637
:1034E0001A469DF80730934240D010F0A5FE059093
:1034F000059B04939DF80730012B03D1012105980A
:103500000EF09CFB11F0D1F803901A4B03F5005319
:103510001A464FF0007353669DF8073018460EF0B8
:10352000CEFB144C9DF8073018460EF0BAFB03464C
:10353000236702E00F4BD3F884300E4B5B6E03F031
:103540000073002B06D10B4BD3F8843003F020031B
:10355000002BEFD0039811F09BF89DF80730022B59
:1035600005D1002105980EF069FB00E000BF06B010
:1035700010BD00BF0040005000B587B003468DF875
:1035800007300023059300230493404B03F5805339
:103590001A464FF0004353663D4B5B6C03F001034A
:1035A000002B14BF012300238DF80F30FFF718FF05
:1035B0009DF80730002B28D10120FFF719FF344B6D
:1035C0005B6803F001030293029B002B50D0304B49
:1035D00003F500531A460123536002E0049B0133B4
:1035E00004932B4B1B6B03F00103002B03D1049BB3
:1035F000284A9342F2D9049B264A934238D907239A
:10360000059335E0049B01330493214B1B6B03F0BE
:103610000803002B03D0049B1E4A9342F2D9049B5B
:103620001C4A934202D90723059321E0184B03F566
:1036300000531A4620239362154B03F580531A4614
:10364000012353600023049302E0049B013304939D
:103650000F4B9B6A03F02003002B03D1049B0D4A00
:103660009342F2D9049B0B4A934201D90723059355
:103670009DF80F30002B01D0FFF7A8FE10F0D4FA10
:10368000059B184607B05DF804FB00BF00800050A2
:10369000004009503F420F0000B585B00190254B16
:1036A00003F580531A464FF000435366224B5B6C80
:1036B00003F00103002B14BF012300238DF80F300A
:1036C000FFF78EFE019B5B785B001C4A43F0010311
:1036D000D3630B20FFF78CFE174B5B6823F4F87263
:1036E000019B9B781B01144913434B60019BDB78C2
:1036F0001B02019A527911460F4A0B439360019BBA
:103700001B791B02019A927911460B4A0B431361F4
:10371000019B1B781846FFF72FFF9DF80F30002BF9
:1037200001D0FFF753FE10F07FFA0123184605B0D1
:103730005DF804FB0080005000400950004000503C
:1037400000B585B0019000238DF80F3000238DF86F
:103750000E30019B0F2B01D90F2301931E4B5B6E83
:10376000DB0F8DF80E301C4B03F580531A464FF0DB
:1037700000435366194B5B6C03F00103002B14BF2D
:10378000012300238DF80F30FFF72AFE8020FFF77A
:103790002FFE124B1B6A23F00F021049019B1343AB
:1037A0000B629DF80F30002B01D0FFF70FFE9DF844
:1037B0000E3083F00103DBB2002B06D0064B03F57D
:1037C00000531A464FF00043536610F02DFA00BF25
:1037D00005B05DF804FB00BF0080005000400950B8
:1037E00000B585B003468DF8073000238DF80F3003
:1037F00000238DF80E301F4B5B6EDB0F8DF80E3003
:103800001C4B03F580531A464FF0004353661A4B86
:103810005B6C03F00103002B14BF012300238DF820
:103820000F30FFF7DDFD8020FFF7E2FD124B1B6A32
:1038300023F4F8529DF807301B020F4913430B6223
:103840009DF80F30002B01D0FFF7C0FD9DF80E3022
:1038500083F00103DBB2002B06D0064B03F50053C7
:103860001A464FF00043536610F0DEF900BF05B072
:103870005DF804FB008000500040095000B583B0A3
:1038800001900091019B084A934202D0019B074A94
:103890009342002300220099019800F09DF900BF97
:1038A00003B05DF804FB00BF0000015B00000A509C
:1038B00000B585B0019001980EF01DFA0423039322
:1038C0000BE0019B03F580531A4604231361019B0F
:1038D00003F500531A4604231361039B5A1E0392F7
:1038E000002BEED1019B20221A61019B0022DA609D
:1038F000019B00229A60019B41F202025A61019BE6
:1039000000229A61019B00229A65019B4FF4A0223C
:103910005A62019B0022DA61019B00221A62019B1C
:1039200000229A62019B0022DA62019B00225A6304
:10393000019B00221A65019B03F500531A46044BB4
:10394000D364019B00221A6300BF05B05DF804FB3D
:10395000FF3F0D0300B585B001900B468DF8033095
:1039600000230393019B244A934202D0019B234AE4
:1039700093429DF80330002B03D101980EF0BBF960
:1039800036E0019B03F580531A46012353609DF8EE
:10399000033003F00F03039340F6FF7101980EF01C
:1039A0009CF9019B039A9A63782101980EF095F98E
:1039B000002303939DF8033003F00103DBB2002BD7
:1039C00003D0039B43F0010303939DF8033003F0FE
:1039D0000403DBB2002B03D0039B43F002030393E9
:1039E00000BF019B9B6C03F00303039A9A42F8D13A
:1039F00000BF05B05DF804FB0000015B00000A5049
:103A000000B589B003900291019200238DF81F3018
:103A1000039B614A934202D0039B604A9342029BFC
:103A2000002B07D1039800F0BDF803461846FCF7B9
:103A3000E7FF0290039B9B6803F00103002B4ED02D
:103A400000238DF81E30039B5B6803F00103012BFC
:103A50000CBF012300238DF81730029A019BB2FBA3
:103A6000F3F3013B06939DF81730002B23D0282158
:103A700003980EF032F9039B9B6C03F00303002BB9
:103A800003D005238DF81E3012E0039B9B6C03F0DE
:103A90000103002B03D009238DF81E3008E0039B9F
:103AA0009B6C03F00203002B02D006238DF81E301E
:103AB00003980EF020F9039B1B6923F07F42069BBD
:103AC0001B061A43039B1A619DF81730002B5ED02A
:103AD0009DF81E3019460398FFF73CFF57E0039B03
:103AE0005B68039B9B6D03F00103002B02D0019BDD
:103AF0005B000193039B9B6803F0E003802B1ED0C7
:103B0000802B20D8602B16D0602B1CD8402B0ED0D9
:103B1000402B18D8002B02D0202B04D013E0102308
:103B20008DF81F3010E008238DF81F300CE00623BD
:103B30008DF81F3008E004238DF81F3004E00123C6
:103B40008DF81F3000E000BF9DF81F30002B1ED005
:103B5000029B5A019DF81F30019901FB03F3B2FB50
:103B6000F3F30693069B203B0693069BDB0006932C
:103B7000069A0B4B13400693012103980EF0ADF803
:103B8000039B069A1A63012103980EF0A6F800BF62
:103B900009B05DF804FB00BF0000015B00000A50A3
:103BA000F8FF7F0084B00190019B094A934202D143
:103BB0005623039308E0019B064A934202D1572300
:103BC000039301E0002300E0039B184604B0704714
:103BD0000000015B00000A5000B587B0039002911D
:103BE00001920093039B5B68002B04D040F6FF71A9
:103BF00003980EF072F80398FFF75AFE039B5B6977
:103C000023F44C5323F00F03029A527B1343029A7E
:103C1000D2891343029A128A1A43039B5A61039B67
:103C20009B6823F0804323F0E203029A127B134344
:103C3000029A127E1A43029B5B691A43039B9A60A5
:103C4000029B9B68002B05D1039B9B6843F00042BD
:103C5000039B9A60029BDB69002B00F0CC80039BE6
:103C60009A68954B1340029AD269127A92051A43C8
:103C7000029BDB699B7A5B041A43029BDB699B888E
:103C800003F4C0431A43029BDB695B789B001A4331
:103C9000029BDB695B7BDB001A43029BDB699B7B3E
:103CA0001B011A43029BDB699B789B021A43039B0F
:103CB0009A60039BDA68814B1340029AD2691269B9
:103CC0001A43029BDB695B691A43029BDB699B79A0
:103CD0009B021A43029BDB69DB795B021A43039B5D
:103CE000DA60029BDB691B78012B04D0029BDB6945
:103CF0001B78032B05D1039BDB6843F00402039B75
:103D0000DA60029BDB691B78022B04D0029BDB6923
:103D10001B78032B16D16A4A039B6A498B4208D051
:103D2000039B69498B4201D1012303E04FF0FF332C
:103D300000E000235B01134403F5A4531433022273
:103D40001A6015E05E4A039B5E498B4208D0039BD4
:103D50005D498B4201D1012303E04FF0FF3300E0C6
:103D600000235B01134403F51253143302221A603B
:103D7000029BDB695B7A1A46039B03F580539A62C8
:103D8000029BDB695B7A002B05D0039BDB6843F465
:103D90000062039BDA60029BDB69DB7A002B20D098
:103DA000039BDB6843F40042039BDA60039B454AB4
:103DB000934208D1029BDB691B7B444A03F00F034B
:103DC00002F580525367039B3F4A934209D1029BFD
:103DD000DB691B7B3D4A03F00F0302F58052C2F8FA
:103DE0008030039B5B6A23F00303029AD269D27B83
:103DF0001A43039B5A62019B002B1DD0019B93F831
:103E00002030002B06D0039B03F580531A46012374
:103E1000136211E0039BDB6923F00903019A92F816
:103E200022201343019A92F82120134343F0010307
:103E3000039A02F58052D361009B002B66D0029B4F
:103E40001B7E002B06D0039B03F580531A464FF4CC
:103E500000439365039B1B4A934203D0039B1A4A7A
:103E600093423ED1039B174A934207D0039B164AC5
:103E7000934201D1012302E0FF2300E000238DF8EB
:103E80001730009B93F82130102B05D89DF8173080
:103E90000F4A0121D15404E09DF817300C4A022149
:103EA000D154009B5B8CB3F5006F15D89DF817308B
:103EB000084A0121D15414E0E39BBDFFFFF9F087CC
:103EC00000C003500000015B00000A500080035056
:103ED000B43A0020B83A00209DF817301F4A02215A
:103EE000D154039B9B6D23F4F95323F01E03009AD6
:103EF00092F821201343009A528C1A43039B9A652F
:103F0000039B03F580531A4601239365039B03F536
:103F100080531A4601235360029B9B68002B07D0F5
:103F2000029B5968029B9B681A460398FFF768FD3D
:103F3000029B1B7819460398FFF70CFD00BF0398FE
:103F40000DF0C4FE0346DB4303F44053002BF6D1CF
:103F500000BF00BF07B05DF804FB00BFB83A002007
:103F600082B0034600918DF807309DF80730002B92
:103F70000AD09DF80730012B06D09DF80730022BA0
:103F800002D09DF80730032B08489DF80720012137
:103F9000009B994013465B0013441B01034403F547
:103FA0000153196000BF02B0704700BF00C003504A
:103FB00082B0034600918DF807309DF80730002B42
:103FC0000AD09DF80730012B06D09DF80730022B50
:103FD00002D09DF80730032B08489DF807200121E7
:103FE000009B994013465B0013441B01034403F5F7
:103FF0008253196000BF02B0704700BF00C0035079
:1040000000B585B002910192009303468DF80F3000
:104010009DF80F30002B0AD09DF80F30012B06D0F1
:104020009DF80F30022B02D09DF80F30032B019B1F
:10403000002B0FD0009B002B06D09DF80F3002996B
:104040001846FFF7B5FF05E09DF80F3002991846B6
:10405000FFF786FF029B072B17D89DF80F2013460A
:104060005B0013441B011A1D204B1344029A92005B
:104070000F2101FA02F0029A9200019901FA02F26C
:10408000014618460DF06BFE19E09DF80F2013460F
:104090005B0013441B0103F10C02144B1344029AFE
:1040A000083A92000F2101FA02F0029A083A9200AF
:1040B000019901FA02F2014618460DF050FE019BEB
:1040C000002B0FD1009B002B06D09DF80F300299DA
:1040D0001846FFF76DFF05E09DF80F30029918466E
:1040E000FFF73EFF00BF05B05DF804FB30C0035092
:1040F00000B585B0019001212020FCF755FC01217D
:104100002120FCF751FC1B4B01225A60019B1B78BC
:104110001B060393174A039B9360019B5B781B0468
:10412000019A92781146134A0B439361114BFF2277
:104130009A62104B00229A630E4B00221A640D4BB8
:104140004FF000425A650B4B03F500531A464FF0EF
:10415000FF331365152001F0A3F8019BDB781946A6
:1041600015200EF029FA15200EF017FA00BF05B041
:104170005DF804FB0000045000B587B00390029185
:104180000192039BDBB21A460123934005933D4BFA
:1041900003F500531A46059B13653B49029B1A68B9
:1041A000039B9B000B445A60029B5B7B354918467E
:1041B000039A13465B0013441B010B4460331860E1
:1041C000029B9B7A1A04029BDB7A1B051A43029B13
:1041D0001B7B5B0513432B491846039A13465B0070
:1041E00013441B010B445C331860019B254823F0EA
:1041F0000301039A13465B0013441B01034470330D
:10420000196010F06CFA0490059920480DF0C1FD7A
:10421000029B1B7A002B05D01A4B03F580531A46DC
:10422000059B1364029B5B7A002B05D0154B03F5AD
:1042300080531A46059B9363029B1B791B04029AC9
:10424000927913430F4A03F0FF1302F50052936172
:10425000029B5B791B04029AD2791343094A03F04B
:10426000FF1302F580529361059909480DF09EFDF8
:10427000044A059B9364049810F023FA00BF07B02A
:104280005DF804FB0000045000400450540004504A
:104290003400045000B585B00190019BDBB21A4692
:1042A00001239340039310F01AFA0290084B5A6DC1
:1042B000039BDB43064913404B65054A039B93620E
:1042C000029810F0FEF900BF05B05DF804FB00BFD6
:1042D00000000450054B03F580531A464FF4803319
:1042E0005366034B9B691846704700BF008000501F
:1042F00000C0075082B00190019B0E4A93420FD03C
:10430000019B0D4A93420BD0019B0C4A934207D06C
:10431000019B0B4A934203D0019B0A4A934201D16D
:10432000012300E0002303F00103DBB2184602B0D2
:10433000704700BF0080045000C0045000000550CA
:10434000004005500080055086B003900291019214
:104350008DF80330039B224A93421AD0039B214AD3
:10436000934214D0039B204A93420ED0039B1F4AD2
:10437000934208D0039B1E4A934201D1042309E0D3
:104380004FF0FF3306E0032304E0022302E00123A1
:1043900000E000230593174B0493059B002B1BDBC8
:1043A0009DF80330002B0BD00499059A13465B004F
:1043B00013445B00029A1344019A41F823200BE056
:1043C000019B18020499059A13465B0013445B0095
:1043D000029A134441F8230000BF06B0704700BFA3
:1043E0000080045000C004500000055000400550FB
:1043F000008005504881035000B585B001900198B8
:10440000FFF778FF019B03F580531A4601231363DE
:10441000019B0222DA60019B00229A60019B00222C
:104420009A61019B03F500531A46374B5361019B78
:1044300000221A62019B4FF6FF72DA61019B002293
:104440005A620023039318E0019A039B03335B0134
:104450001344043300221A60019A039B5B01134446
:10446000683300221A60019A039B5B011344703386
:1044700000221A60039B01330393039B022BE3DDAD
:10448000019B4CF68062C3F8FC20019B0022C3F81C
:10449000EC20019B0022C3F8F020019B1F22C3F8EF
:1044A000F82001980DF0D9FD019B03F500531A4641
:1044B0000123136300BF019B1B6B03F00203002B5E
:1044C000F9D1019B00225A600023039309E0019A6D
:1044D000039B03335B01134400221A60039B0133E7
:1044E0000393039B022BF2DD019B0022C3F8E02023
:1044F000019B0022C3F8E820019B0022C3F8E420BE
:1045000000BF05B05DF804FB7700770782B001902B
:104510000B468DF80330019B084A934204D1084AA8
:104520009DF80330C2F8C831019B03F580531A4649
:104530008023D36500BF02B0704700BF00C00550A4
:104540000080035082B00190019B03F580531A460E
:1045500001235360019B40F6AA625A61019B00222D
:104560009A60019B0022DA65019B41F20502DA6044
:10457000019B00221A61019B0022DA61019B00224B
:10458000DA64019B03F500531A460E4B9364019BBA
:1045900000229A65019B0C4A934202D1019B0022A2
:1045A0001A65019B084A934202D1019B00225A6579
:1045B000019B03F500531A460123536000BF02B06C
:1045C000704700BFFFFF010000C00550024BD3F849
:1045D00010331846704700BF00C0035082B00190EE
:1045E000019B1B78002B0AD0019B1B78012B06D066
:1045F000019B1B78022B02D0019B1B78032B019B94
:104600005B781A460849019B1B781846012303FA78
:1046100002F203465B0003441B010B4403F5015304
:104620001A6000BF02B0704700C0035082B0019012
:10463000044B03F580531A46019BC2F8243400BF93
:1046400002B0704700C0035082B00190044B03F5E4
:1046500000531A46019BC2F8243400BF02B07047D1
:1046600000C0035082B00190044B03F500531A467A
:10467000019BC2F8203400BF02B0704700C0035055
:10468000024BD3F824341846704700BF00C00350D3
:1046900082B0064BD3F824340193044BD3F8202482
:1046A000019B1340184602B0704700BF00C0035082
:1046B00000B587B00390029113468DF80730039B35
:1046C0001B78002B0AD0039B1B78012B06D0039B81
:1046D0001B78022B02D0039B1B78032B9DF807301D
:1046E000002B0AD09DF80730012B06D09DF807302B
:1046F000022B02D09DF80730042BFFF767FF029BC7
:10470000B3F1FF3F01D0029B002B029BB3F1FF3FAF
:1047100009D1FFF7B5FF0590039B5B780599184613
:104720000DF086FE0290029BB3F1FF3F00F0868001
:10473000029B002BC0F28280029B072B21DC029B94
:104740009B00032202FA03F1039B1B781A46029B8B
:104750009B0002FA03F31A463B480DF09DFE029BB4
:104760009B00032202FA03F1039B5B7803F0030230
:10477000029B9B0002FA03F31A4634480DF08CFEAC
:1047800023E0029B083B0493049B9B00032202FA54
:1047900003F1039B1B781A46049B9B0002FA03F368
:1047A0001A462B480DF078FE049B9B00032202FA68
:1047B00003F1039B5B7803F00302049B9B0002FA66
:1047C00003F31A4623480DF067FE9DF8073003F007
:1047D0000103002B05D19DF8073003F00403002BE3
:1047E00006D0029B012219461B480FF096FF05E0F8
:1047F000029B0022194618480FF08FFF9DF80730E2
:1048000003F00203002B05D19DF8073003F00403E9
:10481000002B06D0029B0122194610480FF07DFFA5
:1048200005E0029B002219460C480FF076FF01229A
:10483000029B02FA03F31846FFF714FF029B184687
:1048400007B05DF804FB00BF00C4035008C4035068
:1048500004C403500CC4035010C4035014C40350C8
:1048600030B585B0019001980FF011FA0390039BC9
:10487000002B09D1064A019B14461D460FCD0FC4DB
:1048800095E8030084E80300039B184605B030BD9B
:10489000BC3A002090B001900B468DF803301346CF
:1048A000ADF80030BDF9003047F6FF72934201D1F8
:1048B000FF2301E19DF80330022B00F2FC809DF8FC
:1048C00003307F4AD35C012B00F2F5809DF8033062
:1048D0007B4AD35CDB007B4A13440A930A9B9B7898
:1048E0008DF82730002308939DF82720089B9342DA
:1048F00038BF134607930A9B1B78012B2BD100234B
:104900000F930A9BDB781A46079BD31A0E9317E086
:104910000E9A0F9BD31A5B080E9AD31A03930A9B25
:104920005A68039B5B001344B3F90030BDF90020C3
:104930009A4203DA039B013B0E9301E0039B0F9322
:104940000F9A0E9B9A42E3D30E9BDAB2079BDBB21F
:104950001344DBB2B0E00A9B5B680693069B002B16
:1049600001D10023A8E0069BB3F90030BDF9002077
:104970009A4204DD069B1B88ADF800300AE0069BD6
:10498000B3F90230BDF900209A4203DA069B5B8836
:10499000ADF80030C823ADF836302823ADF83430F8
:1049A0000023ADF83230069B9B88FF2B0DD1BDF85C
:1049B000323001339BB2ADF83230069BDB88ADF864
:1049C0003630069B9B68ADF83430BDF93620BDF912
:1049D0000030D21ABDF9343092FBF3F39AB2BDF82D
:1049E000323013449BB2ADF832300A9B5B781A46E2
:1049F000BDF932309A4203DDBDF93230002B05DAC1
:104A00000A9B5B78013B9BB2ADF83230BDF9323086
:104A1000DB00069A134404330593059B5A68059BF3
:104A2000B3F902301946BDF9003001FB03F313441A
:104A30000493049B002B02DA00230B9301E0049BF8
:104A40000B930B9B5C33204AA2FB03239B090B9324
:104A5000BDF932309BB201339BB2ADF83230BDF9B3
:104A600032300A9A5278934209DABDF93230069A06
:104A7000DB0013449B881A460B9B9342C6D9BDF9B1
:104A80003230013B069ADB0013449B881A460B9B8D
:104A9000934207D9BDF93230013B069ADB0013443B
:104AA0009B880B930B9A079B9A4201D2079B0B930F
:104AB0000B9BDBB200E00023184610B0704700BF2C
:104AC0004C490108BC3A0020D34D62108AB00190D5
:104AD0000B468DF8033013468DF802309DF80330F5
:104AE000022B00F2CC809DF80330674AD35C012B87
:104AF00000F2C5809DF80330634AD35CDB00634A53
:104B000013440893089B1B78012B31D1089BDB7859
:104B10009DF802209A4203D9089BDB788DF8023079
:104B2000089B9B788DF80F30002302939DF80F208F
:104B3000029B934238BF1346DBB29DF80220D31A82
:104B40008DF802309DF80220089BDB781946089BFF
:104B50009B78CB1A9A4202DD00238DF80230089B25
:104B60005A689DF802305B001344B3F9003087E0C7
:104B7000089B5B680793079B002B01D1444B7FE0A8
:104B8000079B04330693089B9B789DF802209A426A
:104B900003D8079BB3F9023072E0089BDB789DF8DD
:104BA00002209A4203D3079BB3F9003068E0002348
:104BB0008DF82730089B5B78013B8DF81730069BFA
:104BC0001B88FF2B14D101238DF8273010E09DF8AE
:104BD00027300133DB00069A13441A889DF802300F
:104BE0009BB29A420BD39DF8273001338DF82730C2
:104BF0009DF827209DF817309A42E8D300E000BFC7
:104C00009DF802304FF47A7203FB02F29DF82730D0
:104C1000DB0006990B445B68D31A04939DF8273098
:104C2000DB00069A1344B3F90230DA0F13445B1029
:104C30001BB21A46049B13449DF82720D200069904
:104C40000A44B2F9022093FBF2F30493079BB3F9F1
:104C500000301A46049B934203DD079BB3F90030F2
:104C60000EE0079BB3F902301A46049B934203DA25
:104C7000079BB3F9023003E0049B1BB200E0044B36
:104C800018460AB0704700BF4C490108BC3A0020E2
:104C90000080FFFF00B583B0054B01930198FFF73B
:104CA000DFFD01200EF0F7FF00BF03B05DF804FB4D
:104CB000B449010800B589B00190009101980EF047
:104CC000ECFF034683F00103DBB2002B43D003ABC0
:104CD000194601980EF0DDFF0690069B002B01D0CF
:104CE00000BFFDE71E4B05939DF80C20059B1B782C
:104CF0009A4230D09DF80C300C2B03D16423ADF8D0
:104D00001E3005E0019808F02DFB0346ADF81E307B
:104D1000059901980EF0AAFF0690069B002B01D082
:104D200000BFFDE7BDF91E30194601980EF085FF62
:104D30000690069B002B01D000BFFDE7059B1B786A
:104D4000042B08D103AB194601980EF0A2FF9DF881
:104D50000C20059B1A7000BF09B05DF804FB00BF72
:104D60005C23012030B597B02B4B0BAC1D460FCD0B
:104D70000FC40FCD0FC495E8030084E8030000239F
:104D800012934FF0FF331593244BD3F84C3103F4B7
:104D90000023002B04D1214BD3F85031DBB2159303
:104DA000159BB3F1FF3F06D11D4B1B88FF2B02D88B
:104DB0001B4B1B881593159BB3F1FF3F01D18C232F
:104DC0001593159BB3F1FF3F18D0159BDBB28DF8FF
:104DD0004530FDF7B9FB0246159B13441593159B0F
:104DE000002B02DA0023159304E0159BFF2B01DD55
:104DF000FF231593159BDBB28DF844300948FBF770
:104E00000FFB0BAB1846FDF779FA3220FDF718FCC3
:104E100000BF17B030BD00BFCC4901080080E00FD3
:104E20000001E00FC017530230B587B01C4B01AC36
:104E30001D460FCD0FC42B6823600023039304236A
:104E40000293FF238DF80530164BD3F84C3103F451
:104E50008023002B05D1134BD3F8503100238DF85C
:104E600005309DF80530FF2B08D10F4B1B785BB246
:104E7000002B03DB0C4B1B788DF805309DF80530BB
:104E8000FF2B02D13F238DF8053001AB1846FDF70B
:104E900063FB3220FDF7C6FB00BF07B030BD00BF8B
:104EA000F44901080080E00F9C00E00F00B58BB0D2
:104EB00001AB00221A605A609A60DA601A615A6186
:104EC0001D4B019340F6FF63ADF8083040F27F734D
:104ED000ADF80A300123059301238DF81830032320
:104EE000039300BF8020FCF7E7F80990099B052B8E
:104EF00007D1124B1B6F23F00703104A43F0010345
:104F000013670F480FF038FC089001AB1846FDF707
:104F100081F803468DF81F30099B052B07D1074BFD
:104F20001B6F23F00703054A43F00203136700BF1A
:104F30000BB05DF804FB00BF802FA604008000507A
:104F4000104A010808B50248FDF7F0FB00BF08BD94
:104F5000C0EA210100B583B005480FF00DFC0190B7
:104F60000020FDF77BFB00BF03B05DF804FB00BF32
:104F70001C4A010800B583B0FCF784FA624B1B6F32
:104F800023F00703604A43F0020313670020FCF795
:104F900091FA5D4B1B6F23F474435B4A43F48063C7
:104FA00013675A4BDB6803F08073002B14BF012397
:104FB00000238DF807309DF80730002B05D0534BA8
:104FC000DB68524A23F08073D3604F4BD3F88030B4
:104FD00023F003034C4A43F00103C2F880304A4BEC
:104FE00003F580531A460023C2F880309DF807303D
:104FF000002B05D0454BDB68444A43F08073D360F7
:10500000414BD3F8203123F007033F4A43F001031B
:10501000C2F820313C4BD3F8283123F007033A4A39
:1050200043F00103C2F82831374BD3F8803123F025
:105030000303354A43F00103C2F88031324BD3F801
:10504000403123F00303304A43F00203C2F84031F9
:105050002D4BD3F8603123F003032B4A43F00203B6
:10506000C2F86031284BD3F8403223F00303264ABC
:1050700043F00203C2F84032234BD3F8003223F04E
:105080000703214A43F00203C2F800321E4BD3F853
:10509000083223F007031C4A43F00203C2F8083227
:1050A000194BD3F8703223F00303174A43F001037E
:1050B000C2F87032144BD3F8203223F00703124A9F
:1050C00043F00103C2F82032FCF71EFA104B1B68B4
:1050D0000F4A43F0040313600B4BD3F8603223F004
:1050E0000703094A43F00103C2F86032064BD3F8C4
:1050F000943223F00703044A43F00103C2F89432C8
:1051000000BF03B05DF804FB00800050F0ED00E04C
:1051100010E000E000B583B00B480FF02DFB0190CC
:10512000FFF782FEFFF71EFE0DF035FAFFF7BEFE19
:10513000FFF708FFFFF70EFFFFF71CFF00231846DD
:1051400003B05DF804FB00BF204A010800B583B03E
:105150000A4A6B4692E80300186004331980023350
:105160000A0C1A706B461846FEF796FA0920FEF7ED
:10517000E7FA0023184603B05DF804FB084A01086B
:1051800000B583B00A4B5B6F094A43F001035367D4
:105190006B4600221A601A7100238DF804306B46AA
:1051A0001846FEF751F90023184603B05DF804FBDA
:1051B0000040005082B0034600918DF807309DF901
:1051C0000730002B0ADB009BDAB20C499DF907304F
:1051D0001201D2B20B4483F800230BE0009BDAB239
:1051E00007499DF8073003F00F03043B1201D2B2C8
:1051F0000B441A7600BF02B0704700BF00E100E028
:1052000000ED00E000B583B00FF069FA0090144B98
:105210001B7883F00103DBB2002B09D0104B012275
:105220001A7000980FF04DFAFB238DF8073010E04C
:1052300000980FF046FA10E09DF907300521184656
:105240000DF0BAF99DF90730DBB20133DBB28DF80E
:1052500007309DF907304B2BEEDD03B05DF804FB02
:10526000FE22012082B00190019B002B01DB019BFB
:105270004B2B0A4A019B5B1152F82320019B03F040
:105280001F0322FA03F303F00103002B0CBF0123D9
:105290000023DBB2184602B0704700BF00E100E017
:1052A00082B00190019B002B0BDB019B03F01F02DE
:1052B0000549019B5B09012000FA02F2603341F8C5
:1052C000232000BF02B0704700E100E082B00190EF
:1052D000019B002B0ADB019B03F01F020549019B88
:1052E0005B09012000FA02F241F8232000BF02B05E
:1052F000704700BF00E100E084B001900B4B1A68DA
:10530000019B13440A4A934202D94FF0FF3309E04C
:10531000064B1B680393054B1A68019B1344034A11
:105320001360039B184604B0704700BF642301203C
:1053300000000420BFF34F8F00BF064BDB6803F46F
:10534000E0620449044B1343CB60BFF34F8F00BFAF
:1053500000BFFDE700ED00E00400FA0582B0019017
:10536000BFF35F8F00BF0A4A019B43F00103536004
:10537000084B5B6A074A43F480335362BFF34F8F95
:1053800000BFBFF36F8F00BF00BF02B0704700BF08
:1053900090ED00E000ED00E0BFF35F8F00BF0A4B2F
:1053A0005B6A094A23F480335362084B5B68074AFF
:1053B00023F001035360BFF34F8F00BFBFF36F8F24
:1053C00000BF00BF704700BF00ED00E090ED00E0BF
:1053D00000B583B003460A468DF8073013468DF8B2
:1053E00006309DF806209DF80730194603480DF059
:1053F00003F900BF03B05DF804FB00BF90ED00E0CF
:1054000000B585B0039002910192019B029A039925
:1054100003480DF02AF900BF05B05DF804FB00BF9A
:1054200090ED00E000B585B00023039300230293C4
:10543000FFF7B2FFA0210020FFF7CAFF4FF0005393
:105440000393294A294B9A4204D0284B23F01F0387
:10545000203B00E0264B0293039A029B9A4215D808
:10546000039B23F01F0343F003030193214B1868B0
:10547000029B23F01F0343F001031A460199FFF733
:10548000BFFF1C4B1B6801331A4A1360164A174BA7
:105490009A421CD0144B1F3323F01F030393164B67
:1054A0000293039B23F01F0343F003030193114B6B
:1054B0001868029B23F01F0343F001031A46019969
:1054C000FFF79EFF0B4B1B6801330A4A1360042051
:1054D000FFF744FFBFF34F8F00BFBFF36F8F00BFD5
:1054E00000BF05B05DF804FB4023012040230120EC
:1054F00000000420D43A0020E0FF032000B583B070
:1055000001AB18460CF05FFC9DF80530012B27D14C
:105510009DF80430002B23D1134B5B6E03F48013F2
:10552000002B0CBF012300238DF807300E4B03F531
:1055300080531A464FF4801353660C4B1B6823F0BC
:10554000E0530A4A43F0406313609DF80730002B94
:1055500006D0054B03F500531A464FF480135366EB
:1055600000BF03B05DF804FB008000503440005AD7
:1055700000B583B0002000F0F9F9019005F044F97E
:10558000034683F00103DBB2002B01D0019B23E033
:10559000134805F077F9034683F00103DBB2002BD3
:1055A00001D0019B18E00E4B1B6818460DF040FA25
:1055B000034683F00103DBB2002B01D0019B0BE01B
:1055C000084A0021002001F0CFF905F00BF80DF09A
:1055D0003AFA01F043FC019B184603B05DF804FB66
:1055E00068230120BC4A010882B00190019B152B61
:1055F00001D9002303E0034A019B52F823301846E7
:1056000002B070476C23012082B00190019B152BE2
:1056100001D9002303E0019B9B00024A1344184672
:1056200002B07047E03A002008B558220021064831
:105630000DF03BFF054B00221A6005F0D3FA03463C
:10564000034A136000BF08BDE03A0020D83A0020AA
:10565000DC3A0020024B1B78DBB21846704700BFD3
:10566000FF220120024B1B78DBB21846704700BFB7
:105670000023012000B585B0019000F0E7F806F0A6
:1056800061FB05F0AFFA0390524B9B6A0133514A1C
:10569000936201F0E3FB0346002B09D0039902203B
:1056A00000F0FCF84B4B9B6C01334A4A93648DE04D
:1056B0000399022000F0F2F805F094FA0390454BAC
:1056C000DB6A0133434AD36206F05AFB0346002BE0
:1056D00009D00399032000F0E1F83E4BDB6C013365
:1056E0003C4AD36472E00399032000F0D7F805F038
:1056F00079FA0390374B1B6B0133364A13630DF075
:105700002AF90346002B09D00399042000F0C6F8BB
:10571000304B1B6D01332F4A136557E0039904206A
:1057200000F0BCF805F05EFA03902A4B5B6B013386
:10573000284A53630DF0F6FA0399052000F0AEF8FD
:1057400005F050FA0390234B9B6B0133214A93637E
:1057500002F0BEF80399062000F0A0F805F042FA26
:1057600003901C4BDB6B01331A4AD36300F034F80F
:105770000399072000F092F805F034FA0390154BD6
:105780001B6C0133134A136404F0B4FD0399082021
:1057900000F084F805F026FA03900E4B5B6C0133A1
:1057A0000C4A536401F09CF80346002B09D003997E
:1057B000092000F073F8074B5B6D0133054A536510
:1057C00004E00399092000F069F800BF05B05DF816
:1057D00004FB00BFE03A002000B583B000F096FA69
:1057E0000190019B002B07D114497F2301220968F6
:1057F000022004F0CBF81CE0019B012B07D11049DB
:105800007F2301220968022004F0C0F811E0019B07
:10581000022B07D10B497F2301220968022004F0E3
:10582000B5F806E008497F2301220968022004F048
:10583000ADF800BF03B05DF804FB00BFFC4A0108EF
:10584000F44A0108F84A0108F04A010800B583B09B
:105850000F4B1B6801330E4A136005F0C3F901902A
:105860000C4B1B68019AD31A00930B4B1B68009AD0
:105870009A4205D9084A009B1360054A009B536071
:10588000044A019B136000BF03B05DF804FB00BF36
:10589000E03A0020DC3A0020D83A002000B585B07C
:1058A000034600918DF8073005F09CF90246009BF5
:1058B000D31A03939DF80730152B0DD89DF80730A8
:1058C000074A52F82330039A9A4205D99DF80730C7
:1058D0000349039A41F8232000BF05B05DF804FB9B
:1058E000E03A002008B502480CF0FAFC00BF08BD01
:1058F0000040005B00B587B06B4600221A605A601A
:105900009A60DA60154B00936B460021184607F049
:1059100007FB0346124A1360114B1B68002B01D191
:1059200000BFFDE7002305930E4B1B6805930C4B4E
:105930001B680D4A0599184607F0FEFC084B1B68CA
:10594000002118460CF0E0FD0490049B002B01D0D0
:1059500000BFFDE700BF07B05DF804FB6128010848
:10596000D4230120CC2301204128010884B0034620
:105970008DF80730064B03939DF807309B001033DA
:105980006B4453F8043C1B68184604B0704700BFD2
:10599000D42301202DE9F04383B00190204B1B68F4
:1059A000002B06D11F4A019B53601E4A019B1360C6
:1059B0000FE01C4B1B68019A9A4202D9194A019BBD
:1059C0001360184B5B68019A9A4202D2154A019BF8
:1059D0005360019B00221C461546134BD3E900235C
:1059E000A61845EB0307104BC3E900670C4B1B6877
:1059F00001330B4A13600C4BD3E90001084B1B68C1
:105A000000229846914642464B4606F08DFA0246E1
:105A10000B46044B9A6000BF03B0BDE8F08300BFA3
:105A20005C3B0020503B0020000800202DE9F04F97
:105A300085B001904FF000004FF00001CDE9020168
:105A400034490968012906D14FF080004FF0000168
:105A5000CDE9020114E02F490968022906D14FF46B
:105A600000404FF00001CDE9020109E02949096831
:105A7000042905D14FF000404FF00001CDE90201AB
:105A8000DDE90201014301D100233EE0019900203C
:105A90000E4607463046394610EB000A41EB010B33
:105AA00050465946841941EB07054FF000004FF06E
:105AB0000001290141EA1471200104460D46A21B90
:105AC00065EB07034FF000004FF00001D90041EAF9
:105AD0005271D00002460B46B2EB060863EB070991
