S02B00002F55736572732F6D697961626C6F6E2F53696D706C696369747953747564696F2F76365F776F726B3E
S3150800000000080020490A000813ED000813ED00084F
S315080000108FFC000813ED000813ED000813ED000827
S3150800002013ED000813ED000813ED000813ED0008A2
S3150800003013ED000813ED000813ED0008D96E00084B
S3150800004013ED000813ED000813ED000813ED000882
S3150800005013ED000813ED000813ED000813ED000872
S3150800006013ED0008CD5A000813ED0008C550000826
S31508000070B550000813ED000813ED000813ED00084D
S3150800008013ED000813ED000813ED000813ED000842
S3150800009013ED00082912000813ED000813ED0008F7
S315080000A013ED0008010E0008D90D000813ED00082D
S315080000B013ED0008D5E0000881EB000803110108DC
S315080000C0FF10010811E300081911010807110108BA
S315080000D051EB00080B110108C1EB000829EC0008D8
S315080000E013ED000813ED00087176000813ED0008FB
S315080000F013ED000813ED000813ED000813ED0008D2
S3150800010013ED000813ED000813ED000813ED0008C1
S3150800011013ED000813ED000813ED000813ED0008B1
S3150800012013ED000813ED000813ED000813ED0008A1
S3150800013013ED000813ED000813ED000813ED000891
S3150800014013ED000813ED000813ED000813ED000881
S3150800015089D0000813ED0008ED100108F310010816
S3150800016013ED000813ED000813ED000813ED000861
S315080001702DE9F04F2DED028B93B082460C4693463F
S315080001801D4657EC106B8DED080B32463B46304644
S31508000190394608F035FD002800F009814FF0FF3296
S315080001A0B14B3046394608F053FD002840F0FF8031
S315080001B04FF0FF326FF480133046394608F02AFDB7
S315080001C0002840F0F48000220023DDE90867304665
S315080001D0394608F01FFD002840F0FC809DED087B9D
S315080001E08DED067B209B13F48063119301D10623C2
S315080001F01E93DDE906010246C1F30A50C1F3130353
S31508000200904643F07F5949F44019A0F2FF3008F0B0
S3150800021025FA83A3D3E9002308F08AFA82A3D3E94F
S31508000220002308F0CFF806460F4600228F4B4046BB
S31508000230494608F0C5F87EA3D3E9002308F078FA02
S3150800024002460B463046394608F0BCF808F00AFD67
S31508000250064608F003FA8046894677A3D3E90023C1
S3150800026008F066FA0022824B08F0ACF808F0FAFCAF
S31508000270074673A3D3E900234046494608F058FACF
S3150800028080468946384608F0E9F96FA3D3E9002382
S3150800029008F04EFA02460B464046494608F090F8E2
S315080002A08046894602460B4608F042FACDE90C011B
S315080002B007F2FF3700210022CDE90A123B050B930E
S315080002C000230A9342464B464046494608F07AF8C8
S315080002D0CDE90E0142464B4600204FF0804108F01A
S315080002E06FF8804689460022624BDDE90C0108F06A
S315080002F049FB0022604B08F065F802460B46DDE92B
S315080003000C0108F03FFB00225C4B08F05BF8024644
S315080003100B46DDE90C0108F035FB02460B46404664
S31508000320494608F04FF802460B46DDE90E0108F08B
S3150800033029FB0022524B08F045F8DDE90A2308F0AC
S31508000340F7F98046894649EC188BDDE9062308F05B
S315080003507FFC40B1013E0022474B4046494608F023
S3150800036011FB41EC180B06F16303C62B3BD8042797
S31508000370209B13F4006F40D035A3D3E90023DDE9B1
S3150800038006894046494608F059FC00283BD032A366
S31508000390D3E900234046494608F03CFC002832D001
S315080003A01E9BB34221DD9E1B731E1E931FE0209BDE
S315080003B002931F9B01931E9B00939DED080B2B46F2
S315080003C05A462146504600F0CBF813B0BDEC028BD6
S315080003D0BDE8F08F9FED227B8DED067B069607F133
S315080003E000430793FEE60527C2E700231E93209BDA
S315080003F043F48063209300273E461F9B9F4241D2C9
S31508000400A3EB070840E01E9B002BF6D0119B002BA0
S31508000410F3D01E9B013B1E93EFE700BFAFF30080AE
S31508000420FB799F501344D33FB3C8608B288AC63FD5
S3150800043061436F63A787D23F71A379094F930A4037
S315080004401655B5BBB16B0240EF39FAFE422EE63FB0
S315080004502D431CEBE2361A3F0000000080842E4133
S315080004600000000000000000FFFFEF7F0000F83FDB
S315080004700000E03F00002C40000024400000184027
S315080004800000F03F4FF00008209B13F0020902D04D
S315080004900FB14FF000083EB153EC182BDDE9060109
S315080004A008F070FACDE9060100220023DDE908010B
S315080004B008F0B0FB00283BD1209B23F4006302938D
S315080004C0CDF804801E9B00939DED060B2B465A46DD
S315080004D02146504600F044F8002F3FF476AF209BA3
S315080004E013F0200F2CD04FF0450C00F101082B46D5
S315080004F0024621466046D04786EAE672A2EBE672D5
S3150800050005230593013F0497002303930A230293C7
S31508000510F30F019300922B464246214650460FF0B0
S31508000520E9FCB9F1000F3FF450AF02461F9F10E0F7
S31508000530DDE90601024601F10043CDE90623BBE7E2
S315080005404FF0650CD1E7561C2B4621462020D04794
S315080005503246A2EB0B03BB42F5D3104635E700BF84
S315080005602DE9F04F2DED028B93B005900891924638
S315080005709B4659EC108B1E9D42464B4640464946C3
S3150800058008F03EFB002840D04FF0FF326FF480138E
S315080005904046494608F03EFB002845D14FF0FF3259
S315080005A0B14B4046494608F053FB00284BD1AAA355
S315080005B0D3E900234046494608F04AFB00285AD1A9
S315080005C0A7A3D3E900234046494608F023FB0028A1
S315080005D051D1002200234046494608F01BFB00285B
S315080005E057D100230993209B13F4806F5CD0002415
S315080005F01F2C5BD8092D59D904F148036B443022C6
S3150800060003F8202C013D0134F2E7209B03931F9B3E
S31508000610029303230193954B00935B465246089930
S3150800062005980FF08DFB10E1209B03931F9B029307
S31508000630042301938E4B00935B465246089905980E
S315080006400FF07EFB01E1209B13F004030FD0894ACB
S315080006507BB10423209903911F990291019300927B
S315080006605B465246089905980FF06AFBEDE0824A08
S31508000670EEE70323EEE7209B02931F9B0193009569
S3150800068049EC108B5B46524608990598FFF770FDB2
S31508000690DBE042464B460020002107F091FE8046EB
S315080006A08946012309939EE70625A0E74046494661
S315080006B008F0D8FA064607F0D1FF02460B46404630
S315080006C0494607F07DFE6D4B03EBC50393ED008BA2
S315080006D053EC182B08F02CF802460B46CDE90623F6
S315080006E008F0E8FA074607F0A9FF02460B46DDE9D7
S315080006F0060107F065FE02460B46CDE906230022F1
S315080007005F4B08F0A5FA50B30137384607F096FF55
S3150800071002460B4651EC180B08F086FA08B101366A
S31508000720002755BB304607F099FF02460B46404660
S31508000730494607F045FE804689460022504B08F098
S3150800074069FA38B100224E4B4046494608F080FA0D
S31508000750002842D016F0010F3FD001363DE00022B6
S31508000760474BDDE9060108F055FA0028D9D117B13B
S3150800077017F0010FD5D00137D3E71F2C17D8013D45
S31508000780404BA3FB0723DB08194603EB8303A7EBC0
S315080007904303621C303304F148000DEB000404F8EF
S315080007A0203C092F02D90F461446E6E714461F2CAB
S315080007B00AD86B1E45B104F148026A44302102F892
S315080007C0201C1D460134F2E71F2C06D804F1480305
S315080007D06B442E2203F8202C01341F2C17D82A4AE2
S315080007E082FB0632F317C3EBA2031A4603EB830315
S315080007F0A6EB4303611C303304F148000DEB0004FB
S3150800080004F8203C16460AB10C46E6E70C46209B3F
S3150800081003F00303012B39D01F2C09D8099B002BA1
S3150800082051D004F148036B442D2203F8202C0134DF
S31508000830209B03931F9B029301940AAB00935B468C
S315080008405246089905980FF07BFA13B0BDEC028B57
S31508000850BDE8F08FAFF300800000000065CDCD4104
S315080008600000000065CDCDC1FFFFEF7F9C16010893
S31508000870A01601089016010898160108A81601087E
S315080008800000E03FCDCCCCCC676666661F9BB3B153
S31508000890099B1BB9209B13F00C0F12D01F9B013B21
S315080008A01F93194606E004F148036B44302203F807
S315080008B0202C01348C42AFD21F2CF4D9ACE71F99F7
S315080008C0F8E71F99F6E7209B13F0040F07D004F109
S315080008D048036B442B2203F8202C0134A8E7209BFD
S315080008E013F0080FA4D004F148036B44202203F840
S315080008F0202C01349CE700BF0348044B834202D0F6
S31508000900034B03B118477047F0C00020F0C0002021
S3150800091000000000064B0749C91A891048BF013173
S31508000920491003D0044B0BB101481847704700BF64
S31508000930F0C00020F0C000200000000010B5064CF2
S31508000940237843B9FFF7D8FF044B13B10448AFF334
S3150800095000800123237010BD24BF00200000000082
S31508000960F476010808B5054B1BB105490548AFF3F0
S315080009700080BDE80840FFF7CDBF00BF00000000BB
S31508000980400A0020F4760108A3F5803A704700BFB4
S31508000990174B002B08BF134B9D46FFF7F5FF0021A9
S315080009A08B460F461348144A121A0FF07DFD0E4B5C
S315080009B0002B00D098470D4B002B00D098470020FD
S315080009C0002104000D000D48002802D00C48AFF3A2
S315080009D0008008F005FC200029000FF097FB08F0BE
S315080009E037FB00BF00000800000000000000000000
S315080009F0000800200008002060BF0020000000005A
S31508000A0000000000BFF34F8F0549CA6802F4E06290
S31508000A10044B1343CB60BFF34F8F00BFFDE700BF06
S31508000A2000ED00E00400FA0508B50448044A121A65
S31508000A30921004490EF06EF908BD00BF8001000847
S31508000A408001000860BF002008B5154B83F30A88AB
S31508000A5000F030F8FFF7E8FF124A0AE0106851681C
S31508000A6050F8230041F82300013391688B42F5D3EF
S31508000A700C320D4B9A4201D20023F6E70B4A08E0E6
S31508000A801168002041F82300013351688B42F7D3DF
S31508000A900832074B9A4201D20023F6E7FFF778FFA0
S31508000AA000000020FC76010808770108087701088D
S31508000AB00877010870B5134B134A9A60D3F8882053
S31508000AC042F47002C3F88820104A4FF480419166B8
S31508000AD00F4D05F500544FF0FF3222660D4A626647
S31508000AE00222C3F8D020BFF34F8FBFF36F8F0020C9
S31508000AF003F022F94FF44036E66000200EF0D7FDE9
S31508000B002E6170BD00ED00E0000000080090005066
S31508000B1000800044F7FF3700014B1860704700BF9C
S31508000B2070BF002008B5064B1860064B1B6F03F014
S31508000B300703032B00D008BD10F018FBFBE700BF26
S31508000B4078BF00200080005010B504460FE001234E
S31508000B50834024EA03040F2814D800EB40020E4B06
S31508000B6003EB82035A6812B19968C0B2904794B1F0
S31508000B70234600201F28EAD813F0010FE7D10130D9
S31508000B805B08F7E7103800EB40039B00B033024AD6
S31508000B9013440433E6E710BD580A002008B50D488B
S31508000BA010F0FCFB192003F0B7F828B91A2003F057
S31508000BB0B3F840B9002008BD192003F0BDF8192084
S31508000BC00EF075FDF2E71A2003F0B6F81A200EF0BB
S31508000BD06EFDEFE73816010840B310B504460378F2
S31508000BE04BB1022B1DD0032B1ED0012B01D00023A5
S31508000BF003E03F2301E040F2FF336278D34013F06D
S31508000C00010F15D010F0BEFB2378627801219140C0
S31508000C1003EB43031B01074AD15010F0AEFB00203B
S31508000C2010BD40F2FF33E8E73F23E6E7222070478E
S31508000C302120F5E740D0035040B310B504460378A9
S31508000C404BB1022B1DD0032B1ED0012B01D0002344
S31508000C5003E03F2301E040F2FF336278D34013F00C
S31508000C60010F15D010F08EFB237862780121914090
S31508000C7003EB43031B01074AD15010F07EFB00200B
S31508000C8010BD40F2FF33E8E73F23E6E7222070472E
S31508000C902120F5E740E00350002866D02DE9F04111
S31508000CA00C4615461F460646002960D002784AB10A
S31508000CB0022A3ED0032A3FD0012A01D0002303E0AE
S31508000CC03F2301E040F2FF337178CB4013F0010F68
S31508000CD001D1FF2A4DD1022D01D9042D4BD110F097
S31508000CE051FB80463378FF2B28D12368B3F1FF3FA9
S31508000CF02BD02268B2F1FF3F32D0204B02EB4202E2
S31508000D0003EB82025760226802EB420203EB82037E
S31508000D10069A9A603378FF2B05D022680123934000
S31508000D20174AC2F82434404610F027FB0020BDE8D5
S31508000D30F08140F2FF33C7E73F23C5E72A4621681B
S31508000D40304602F029FC2060CFE73378FF2BD0D15C
S31508000D500C4BD3F8241470780EF06BFC2060C8E7AF
S31508000D60404610F00AFB2D20E1E72220704722209A
S31508000D70DDE72120DBE72120D9E700BF580A00205C
S31508000D8000D0035000C00350B0F1FF3F1AD038B569
S31508000D9004460F2818DC002818DB10F0F3FA0123A4
S31508000DA0A3400B4AC2F82034C2F82434094B04EB9A
S31508000DB0440203EB820200255560956010F0DDFAC7
S31508000DC0284638BD212070472120FAE72120F8E778
S31508000DD000E00350580A002008B5084BD3F824044D
S31508000DE0D3F82024104000F0553020F0502003F5A9
S31508000DF00053C3F82004FFF7A7FE08BD00C0035040
S31508000E0008B5084BD3F82404D3F82024104000F082
S31508000E10AA3020F0A02003F50053C3F82004FFF7FA
S31508000E2093FE08BD00C00350F0B585B00C46944645
S31508000E309DF83410664A1278002A00F0BD800546EF
S31508000E40BCF1070F00F2BA800A9A002A00F0B880AF
S31508000E500B9A002A00F0B6800E9AB2F5006F00F3DE
S31508000E60B38001285BD05B4A02EB0C12127B002A86
S31508000E7000F0AC8000220092019202920392564A38
S31508000E8002EB4C1E002C4FD14FEA4C160020905115
S31508000E90CEF80400CEF80800CEF80C009EF8020042
S31508000EA040F010008EF802009EF8030040F0300073
S31508000EB08EF8030021B9C1B241F003018EF8031080
S31508000EC000930E9B013B444A4FEA4C1002EB4C112F
S31508000ED0165A63F30E1616520A9B8B600B9B4B60D1
S31508000EE0CB789DF83C2062F38303CB70012D36D076
S31508000EF0109B002B56D0374A4FEA0C1102EB0C1305
S31508000F0010985050119A5A6000249C605D7372467E
S31508000F106946604602F0E4F9204605B0F0BD0C9A31
S31508000F20002AA0D12D48F8E72B4F4FEA4C1607EBBD
S31508000F304C120020B85150609060D060907840F014
S31508000F4010009070D07840F00300D0700029B7D117
S31508000F5007EB4C12C1B241F03001D170B0E70E4632
S31508000F600A7B42F001020A73D2B242F002020A7305
S31508000F70CA68042161F39F02F26006F1100796E839
S31508000F800F0087E80F00F2696FF0030161F39F0213
S31508000F90F2610C9B7361012CAAD10B9AB2610C9A6F
S31508000FA07260A5E7002DA6D10B4B03EB4C139A787C
S31508000FB06FF304129A709EE70948AEE70748ACE754
S31508000FC00648AAE70548A8E70448A6E70548A4E7A7
S31508000FD025BF0020C00C0020C00B0020018000F0B7
S31508000FE0028000F0078000F0134B1B78FBB110B5A8
S31508000FF00446F0B110F0C6F90023072B13D80F4AA0
S3150800100002EB0312127B0AB10133F6E723600B4A9F
S31508001010190102EB031301241C730024545010F029
S31508001020ACF9204602E010F0A8F9054810BD0548BD
S3150800103070470548FAE700BF25BF0020C00C00200E
S31508001040048000F0028000F0018000F038B510F04E
S3150800105099F904460023072B06DC0C4A02EB031217
S31508001060127B12B90133F6E7002222B1204610F0AE
S3150800107084F9074838BD02F0DFF80025054B1D70D6
S31508001080204610F07AF92846F4E700BFC00C002085
S31508001090058000F025BF00200F4B1B78BBB110B5AB
S315080010A00446072815D810F06DF90C4B03EB04130A
S315080010B01B7B1BB910F061F909480BE0074B03EBE2
S315080010C0041300241C7310F058F9204602E0054862
S315080010D07047054810BD00BF25BF0020C00C002082
S315080010E0068000F0028000F0018000F000B583B0B1
S315080010F0134B1B68019300238DF8043010F042F956
S31508001100104B1B7833B90F4B01221A7010F035F9C2
S31508001110002309E010F031F90B480EE00B4A02EB08
S315080011200312002111730133072BF7DD08238DF80D
S31508001130073001A802F0A4F8002003B05DF804FB0C
S31508001140D813010825BF0020038000F0C00C00203A
S3150800115010B5104C2478BCB1072817DC0E4C04EBEC
S315080011600014247BA4B10C4C4FEA001E04EB001CAF
S3150800117044F80E30029BCCF804300024CCF8084022
S3150800118002F0AEF8204610BD0448FCE70448FAE72A
S315080011900448F8E725BF0020C00C0020028000F0B4
S315080011A0018000F0078000F008B50A4B1B785BB198
S315080011B007280BD8084B03EB00131B7B43B1002110
S315080011C002F050F8002008BD0448FCE70448FAE796
S315080011D00448F8E725BF0020C00C0020028000F074
S315080011E0018000F0078000F008B50A4B1B785BB158
S315080011F007280BD8084B03EB00131B7B43B10121CF
S3150800120002F030F8002008BD0448FCE70448FAE775
S315080012100448F8E725BF0020C00C0020028000F033
S31508001220018000F0078000F0F8B5194B1F6D5B6D63
S315080012301F4002D40125002402E0FEE701346D00B8
S31508001240072C24D83D42F9D0124B1D652301124ABA
S31508001250D358002BF2D002EB0416B1680131B16005
S3150800126072682046984780F00100C0B2737B012B54
S31508001270E4D10028E2D0094B03EB44131A7B6FF341
S3150800128041021A731A7F6FF341021A77D6E7F8BD3F
S315080012900000045000200450C00C0020C00B0020A1
S315080012A038B505460C46164BD3F8283103F0070324
S315080012B0013B052B20D8DFE803F003131B0F0B17A0
S315080012C00FF02EFF052305B1286004B1236038BD51
S315080012D00FF026FF0623F6E70FF06CFF0723F2E769
S315080012E00FF05EFF0323EEE70FF05AFF0423EAE749
S315080012F00FF052FF0223E6E700231846E3E700BF94
S315080013000080005030B583B005460C460023019393
S31508001310154BD3F8203203F00703042B21D8DFE856
S3150800132003F0030B11161B0001230DB1019A2A6065
S3150800133004B1236003B030BD002101A8FFF7B0FF58
S315080013401223F2E70FF036FF01900723EDE710F0BE
S315080013501FF801900A23E8E70FF076FF01900923AA
S31508001360E3E70023E1E700BF00800050024B4FF49B
S3150800137080321A67704700BF00900050204B984291
S3150800138036D009D91F4B984236D01F4B984222D1E6
S315080013901E4BD3F8D0007047A3F5B703A3F55863DF
S315080013A0984221D006D91A4B984212D1174BD3F836
S315080013B0BC007047174B984202D0174B984203D18E
S315080013C0124BD3F8A0007047144B9842F8D000206F
S315080013D0704700207047124B984203D10B4BD3F845
S315080013E0C800704700207047084BD3F8B80070470C
S315080013F0064BD3F8C0007047044BD3F8CC007047AF
S31508001400C0EA21010048E801005A62020080E00FA4
S315080014100024F40080841E0000093D0040420F00AD
S3150800142080BA8C0138B505460C460F4BD3F8803088
S3150800143003F00303022B0ED0032B10D0012B06D08A
S315080014400023184605B1286004B1236038BD0FF0A3
S315080014506DFE0E23F6E70FF0ADFE0723F2E70FF059
S315080014605FFE0623EEE700BF0080005038B505464C
S315080014700C46104BD3F8000100F00300032815D8DA
S31508001480DFE800F002080C10012305B1286004B15A
S31508001490236038BD0FF084FE0323F6E70FF0D4FE71
S315080014A00923F2E70FF082FE0823EEE70023184629
S315080014B0EBE700BF0080005038B505460C46174BD1
S315080014C0D3F8200100F00700062823D8DFE800F04B
S315080014D0040A0E16121A1E00012305B1286004B16B
S315080014E0236038BD0FF01CFE0523F6E70FF058FE03
S315080014F00323F2E70FF05EFE0723EEE70FF04CFE3C
S315080015000223EAE70FF00CFE0623E6E70FF048FE93
S315080015100423E2E700231846DFE700BF00800050F7
S3150800152038B505460C46104BD3F8400100F00300C9
S31508001530032815D8DFE800F002080C10012305B1CE
S31508001540286004B1236038BD0FF022FF0A23F6E7AE
S315080015500FF07AFE0923F2E70FF01DFF0C23EEE7E2
S3150800156000231846EBE700BF0080005030B583B073
S3150800157005460C4600230193144BD3F8603203F05A
S315080015800703013B032B1FD8DFE803F0020E1914EB
S31508001590002101A8FFF790FF10230DB1019A2A60D8
S315080015A004B1236003B030BD002101A8FFF7B8FFDE
S315080015B01123F2E70FF0FEFD01900723EDE70FF088
S315080015C0EBFD01900223E8E70023E6E700800050E0
S315080015D030B583B005460C4600230193144BD3F867
S315080015E0943203F00703013B032B1FD8DFE803F00F
S315080015F0020E1914002101A8FFF75EFF10230DB192
S31508001600019A2A6004B1236003B030BD002101A805
S31508001610FFF786FF1123F2E70FF0CCFD01900723B1
S31508001620EDE70FF0B9FD01900223E8E70023E6E7AE
S315080016300080005030B583B005460C460023019360
S315080016400C4BD3F8703203F00303012B09D0022B9D
S315080016500DD115230DB1019A2A6004B1236003B098
S3150800166030BD002101A8FFF75BFF1123F2E7002335
S31508001670F0E700BF0080005038B505460C46104B11
S31508001680D3F8600100F00300032815D8DFE800F05E
S3150800169002080C10012305B1286004B1236038BD87
S315080016A00FF076FE0A23F6E70FF0CEFD0923F2E7E0
S315080016B00FF071FE0C23EEE700231846EBE700BF98
S315080016C000800050324B984252D029D8314B98426C
S315080016D048D009D9304B984247D0304B98421DD153
S315080016E02F4BD3F8800070472E4B984237D005D938
S315080016F02D4B984210D12A4B186F70472B4B9842A6
S3150800170002D02B4B984202D1254B986D7047294B36
S315080017109842F9D000207047002070470020704793
S31508001720254B98422CD00CD9244B98422CD003F543
S31508001730740303F5105398420FD1194BD3F8980048
S3150800174070471F4B984217D01E4B984203D1144B33
S31508001750D3F88C0070470020704700207047104B64
S31508001760586E70470E4B586F70470D4B986F704701
S315080017700B4BD3F884007047094BD3F888007047A1
S31508001780074BD3F890007047054BD3F89400704781
S315080017900048E8010024F400C0EA210180BA8C015F
S315080017A00080E00FC0CF6A00405DC60080841E003E
S315080017B000093D0040420F00007E56030090D0030A
S315080017C080D54302006CDC0270B582B006460D4631
S315080017D000230193104BD3F8804104F00304022C34
S315080017E016D0032C0FD0012C07D000240EB1019B74
S315080017F0336005B12C6002B070BD002101A8FFF767
S315080018005BFE1024F2E70FF0D5FC01900724EDE704
S315080018100FF0C2FC0190E9E70080005038B5054694
S315080018200C46104BD3F8400200F00300032815D8E5
S31508001830DFE800F002080C10012305B1286004B1A6
S31508001840236038BD0FF0A4FD0A23F6E70FF0FCFC71
S315080018500923F2E70FF09FFD0C23EEE70023184655
S31508001860EBE700BF0080005038B505460C46134B21
S31508001870D3F8000200F0070004281BD8DFE800F0C0
S3150800188003090D111500012305B1286004B1236071
S3150800189038BD0FF07DFD0A23F6E70FF0D5FC0923C6
S315080018A0F2E70FF078FD0C23EEE70FF05FFC800AF5
S315080018B00F23E9E700231846E6E700BF008000503B
S315080018C038B505460C46134BD3F8080200F0070056
S315080018D004281BD8DFE800F003090D1115000123C1
S315080018E005B1286004B1236038BD0FF051FD0A2305
S315080018F0F6E70FF0A9FC0923F2E70FF04CFD0C23DD
S31508001900EEE70FF033FC800A0F23E9E700231846B9
S31508001910E6E700BF00800050B0F5207F20D00ED843
S31508001920B0F5007F16D020D810B1B0F5C07F04D12D
S315080019300F4B186FC0F3033018E0002016E0B0F51F
S31508001940607F05D10A4BD3F88000C0F301100DE083
S3150800195000200BE0064BD3F89000C0F3046005E0C6
S31508001960034B186FC0F3802000E000200130704759
S315080019700080005038B505460C46174B4FF48032A8
S315080019809A660020FFF7C8FF05FB00F0134BDA69DB
S3150800199002F4803241F67131D9635B6823F440134F
S315080019A06CB90F49884207D800210B430B494B6095
S315080019B00AB10022CA6338BD4FF48011F5E7002C3E
S315080019C007DD0849884201D80021EEE74FF4801167
S315080019D0EBE74FF44011E8E7009000500000035091
S315080019E0005A6202002D3101430905D0012B0DD0A2
S315080019F0022B0DD0002200E0002200F01F0049B1A2
S31508001A0002F580520123834013607047034AF4E7C6
S31508001A10034AF2E702F50052F4E700BF648000507B
S31508001A206880005008B580200DF0CCF9034B984229
S31508001A3003D8034B4FF480321A6708BD005A620276
S31508001A4000A0005000B583B000230193B0F5807F55
S31508001A5000F04A8118D9B0F5F06F00F04A8140F2DB
S31508001A60DB80B0F5206F00F0538140F20481B0F5B9
S31508001A70406F00F04881B0F5486F40F00C8101A92D
S31508001A800020FFF7A5FDDFE0802800F2DD8024288E
S31508001A90C0F0DA8024385C2800F2D68001A353F817
S31508001AA020F000BFDF1C0008DF1C0008DF1C000850
S31508001AB0DF1C0008DF1C0008491C0008D51C0008AC
S31508001AC0491C00086D1C0008FD1C0008491C00087C
S31508001AD0491C0008491C0008491C0008491C000844
S31508001AE0491C0008491C0008491C0008491C000834
S31508001AF0491C0008491C0008491C0008491C000824
S31508001B00491C0008491C0008F31C00082D1C000885
S31508001B10491C0008491C0008491C0008491C000803
S31508001B20491C0008491C0008491C0008491C0008F3
S31508001B30491C0008491C0008491C0008491C0008E3
S31508001B40491C0008491C0008DF1C0008491C00083D
S31508001B50491C0008491C00088D1C0008491C00087F
S31508001B60491C0008111D00089D1C00085D1C000882
S31508001B70071D0008491C0008491C0008491C0008E4
S31508001B80491C0008491C00087F1A0008491C00085F
S31508001B90491C0008491C0008491C0008491C000883
S31508001BA0491C0008491C0008491C0008491C000873
S31508001BB0491C0008491C0008491C0008491C000863
S31508001BC0491C0008491C0008491C0008491C000853
S31508001BD0491C0008491C0008491C0008491C000843
S31508001BE0491C0008491C0008491C0008491C000833
S31508001BF0491C0008491C0008491C0008491C000823
S31508001C00491C0008491C0008491C0008491C000812
S31508001C10491C0008A71C0008B0F5B06F5AD00AD9AD
S31508001C20B0F5D06F6AD0B0F5E06F1CD101A90020DD
S31508001C30FFF7F4FD08E0B0F5607F04D101A90020A4
S31508001C40FFF7F0FB00E003D2019803B05DF804FB50
S31508001C50B0F5806F43D0B0F5A06FF5D101A900208B
S31508001C60FFF750FBF0E7B0F5C06FEDD101A90020F2
S31508001C70FFF756FCE8E7B0F5086F04D101A9002084
S31508001C80FFF7F4FBE0E7B0F5106FDDD101A90020FE
S31508001C90FFF716FED8E7B0F5286FD5D101A90020C1
S31508001CA0FFF7C8FCD0E71D4B1B6F03F00703013B8A
S31508001CB0032BC9D8DFE803F00B02050805230193B7
S31508001CC0C2E703230193BFE708230193BCE7022376
S31508001CD00193B9E701A90020FFF776FDB4E701A94A
S31508001CE00020FFF7E9FBAFE701A900200DF045F852
S31508001CF0AAE701A90020FFF7BFFCA5E701A9002074
S31508001D00FFF7B2FDA0E701A90020FFF7C9FA9BE794
S31508001D1001A90020FFF72AFC96E700BF00800050C3
S31508001D20094B596E03F580534FF480325A66074AB9
S31508001D30536A23F00103536211F4803F03D1044B25
S31508001D404FF480325A6670470080005000C0075032
S31508001D5000A0005010B504468020FFF773FE032844
S31508001D6000F0AE805D4B4FF480125A665C4B45F628
S31508001D700E02C3F8802003F580524FF0A0619162ED
S31508001D8003F500534FF480329A62554B9B6D13F45A
S31508001D90803FFAD1524B9B6D13F0804FFAD12268DF
S31508001DA063681B0543EA0263227B43EA0243627BBC
S31508001DB043EA0233A27B43EA8213E27B1343484A8F
S31508001DC01361936903F00043216943EA81636169FA
S31508001DD043EA0163217E43EA0143617E43EA012324
S31508001DE0A17E0B439361136A23F00F03E269002A6D
S31508001DF046D111460B43E17E43EA81031A43384B29
S31508001E001A62E369002B3DD1354A916A354B0B407E
S31508001E1094F8201043EA411394F8211043EA011379
S31508001E2094F8241043EAC10343F4803393622C4B9D
S31508001E309A6D2D4B9343FAD1294A02F580514FF0FA
S31508001E4080738B62136923F47003A06843EA005316
S31508001E5013614FF000438B6194F822301BB9234B72
S31508001E604FF080729A6294F8233013BB1F4B4FF4DD
S31508001E7080329A621A4B9B6D13F0804FFAD118E0A4
S31508001E800821B7E7022B1CD0154A916A154B0B405F
S31508001E9094F8201043EA411394F8221043EA0163A8
S31508001EA094F8241043EAC10394F8231043EA014343
S31508001EB0936294F825301BB1094B0D4AC3F880206C
S31508001EC010BD074B00221A619A614FF408524FF46D
S31508001ED07F4108480CF043FFD6E700BF009000504A
S31508001EE00040005AC7FFFEFE030001000060005ACA
S31508001EF0F1A7FFFF3440005A014B93F900007047E1
S31508001F00DEC0002010B443784F2B28BF4F231A4653
S31508001F101C4B4FF40001596603F5B8334FF4D15101
S31508001F20596203F5805102244C6003F500530121E0
S31508001F305960154B1B6913F4803FFAD1037842EABE
S31508001F400323114A5361416883681B0143EA01234D
S31508001F50017B43EA4103417B0B439360817BC37B4F
S31508001F601B0143EA4113017C43EA4103417C0B43CD
S31508001F705360837C1BB113466FF4D1525A625DF8E5
S31508001F80044B70470090005000000250014B188027
S31508001F90704700BFD2C00020014B1880704700BFB1
S31508001FA0D0C0002008B51B4B4FF480025A6603F5D3
S31508001FB0D83302225A60184B9B6813F4803FFAD133
S31508001FC0012806D0144B00225A62134B00225A608D
S31508001FD008BD0FF0E5F8114B984212D003F512230D
S31508001FE003F5F863984210D000EB8001490A400ACD
S31508001FF00B4AB2FBF0F2084BD9621A6301225A6205
S31508002000E3E745F67A120749F5E745F61A0206495F
S31508002010F1E700BF009000500040025000F049026E
S3150800202064666666D8B80500BBCF0500B0F5207FA4
S315080020305DD02DD8B0F5007F4ED061D810B1B0F57F
S31508002040C07F24D110B54C1E0CF0B5FE0DF095F8E6
S31508002050FFF78CF92B4A136F23F4704343EA0433D2
S3150800206013670FF083F8284BD3F8843013F0100F5A
S31508002070F9D1254BD3F88410C1F38111C1F10201BE
S315080020800DF070F800F058F8FFF7CCFC10BD70475B
S31508002090B0F5607F1FD11D4BD3F8FC2012F080727B
S315080020A006D01846D3F8FC3023F08073C0F8FC300D
S315080020B001391448D0F8803023F0300343EA01137D
S315080020C0C0F88030E2B1114AD2F8FC3043F0807390
S315080020D0C2F8FC307047704701390A4AD2F8903086
S315080020E023F0F85343EA0163C2F890307047013988
S315080020F0044A136F23F4806343EA81231367704706
S31508002100704700BF008000500040005000ED00E01E
S3150800211008B50121022000F0F3FC4FF42070FFF708
S31508002120FBFB044B18700CF046FE0DF026F8FFF783
S315080021301DF908BD26BF002008B54FF4C0700CF085
S3150800214041FE054B984205D902214FF42070FFF74E
S315080021506DFF08BD0121F8E780F0FA0210B50446C4
S315080021600FF004F80F4BD3F8843013F0100FF9D1A1
S315080021700C4BD3F88410C1F38111C1F102010CF0A4
S31508002180F1FF0121002000F001FD24B1FFF7D4FF83
S31508002190FFF748FC10BD044B19784FF42070FFF781
S315080021A045FFF5E70040005026BF002070B50C46F5
S315080021B0B0F5807F00F0348229D9B0F5F06F00F0D1
S315080021C0938240F2EB80B0F5206F00F01A8340F25C
S315080021D06081B0F5406F00F0EC82B0F5486F40F0D2
S315080021E07E81023C0F2C00F22B83DFE814F03903C2
S315080021F02903290329032903330329032903290367
S3150800220029032903290329032903350337038028CA
S3150800221000F20F812428C0F00C8124385C2800F2D3
S31508002220088101A353F820F0E5250008E5250008F4
S31508002230E5250008E5250008E525000833240008FB
S31508002240BD250008332400086D2400081D27000852
S3150800225033240008332400083324000833240008F4
S3150800226033240008332400083324000833240008E4
S3150800227033240008332400083324000833240008D4
S31508002280332400083324000833240008E92600080C
S31508002290B523000833240008332400083324000833
S315080022A033240008332400083324000833240008A4
S315080022B03324000833240008332400083324000894
S315080022C0332400083324000833240008E5250008D1
S315080022D0332400083324000833240008C5240008E2
S315080022E0332400083324000803280008E5240008DE
S315080022F043240008B32700083324000833240008C1
S31508002300332400083324000833240008E321000896
S315080023103324000833240008332400083324000833
S315080023203324000833240008332400083324000823
S315080023303324000833240008332400083324000813
S315080023403324000833240008332400083324000803
S3150800235033240008332400083324000833240008F3
S3150800236033240008332400083324000833240008E3
S3150800237033240008332400083324000833240008D3
S3150800238033240008332400083324000833240008C3
S31508002390332400083324000805250008B0F5B06F7B
S315080023A000F00C8119D9B0F5D06F00F0B781B0F5FF
S315080023B0E06F58D10B2C00F21A820A2C80F01B828F
S315080023C0092C40F01A820222A249D1F8403223F0A1
S315080023D003031343C1F840322BE0B0F5607F27D1E1
S315080023E09D4BD3F8FC2012F0807206D01946D3F81C
S315080023F0FC3023F08073C1F8FC30072C00F0C38151
S315080024000E2C00F0C281062C00F0BB8100209149F9
S31508002410D1F8803023F003030343C1F8803042B17A
S315080024208D4AD2F8FC3043F08073C2F8FC3000E0E5
S3150800243000D270BDB0F5806F00F0D480B0F5A06F03
S31508002440F7D1073C0B2C00F2A281DFE814F0AA01B1
S31508002450A001AE01AC01AC01A001A001A001A00140
S31508002460A001A001B001B0F5C06FE2D10B2C00F2BB
S3150800247031810A2C80F03281092C40F03181022208
S315080024807449D1F8403123F003031343C1F84031AE
S31508002490CFE7B0F5086F12D1082900F06E81092937
S315080024A000F06D81032900F066810021694AD2F89F
S315080024B0003123F003030B43C2F80031B9E7B0F546
S315080024C0106FB6D1093C062C00F24381DFE814F000
S315080024D04301490149014501410141014701B0F55F
S315080024E0286FA6D1112C00F0BD81152C40F0BC81B7
S315080024F00221584AD2F8703223F003030B43C2F87C
S31508002500703296E78B1E062B05D8DFE803F0513F9D
S31508002510045404044E0000252E460121022000F032
S31508002520EFFA0CF048FC0CF028FEFEF71FFF494AAC
S31508002530136F23F00703334313670EF017FE474B59
S31508002540D3F8843013F0100FF9D1444BD3F8841024
S31508002550C1F38111C1F102010CF004FE0121002032
S3150800256000F014FBFFF7E8FDFFF75CFA002D7FF497
S3150800257060AF032C7FF45DAF394B4FF480329A621B
S31508002580384B9B6D13F0804FFAD152E7364B4FF418
S3150800259080125A66334B9D6AC5F3006503F580536E
S315080025A04FF480329A620E46B7E700250426B4E750
S315080025B000250126B1E700250226AEE7072C0DD037
S315080025C0102C0DD0022C00D00024224AD2F88031DB
S315080025D023F003032343C2F880312AE70324F4E7F0
S315080025E00124F2E7023C052C04D8DFE804F00905CB
S315080025F00D0F0B0700210AE0022108E0042106E07E
S31508002600032104E0052102E0062100E00121114A28
S31508002610D2F8203123F007030B43C2F8203108E72C
S31508002620A1F10904082C3FF604AF01A353F824F0DE
S315080026306D2600086D260008332400086D2600085C
S31508002640A126000833240008332400083324000890
S315080026506D2600080080005000ED00E000400050A4
S315080026600060005A0040005A009000507F4B596E97
S3150800267003F580534FF480325A667D4A536A43F015
S315080026800103536211F4803F03D17A4B4FF4803231
S315080026905A664FF0E022136923F004031361C8E673
S315080026A0724B596E03F580534FF480325A66704A5E
S315080026B0536A23F00103536211F4803F03D16D4B33
S315080026C04FF480325A664FF0E022136943F0040350
S315080026D01361AEE60C2C05D10322D1E60122CFE622
S315080026E00022CDE60022CBE60B2C0DD80A2C0FD201
S315080026F0092C0FD102225D49D1F8603123F003037A
S315080027001343C1F8603194E60C2C05D10322F2E795
S315080027100122F0E70022EEE70022ECE7093C062C4E
S3150800272005D8DFE804F0060C0C0804040A000021AA
S3150800273006E0022104E0032102E0042100E0012171
S315080027404A4AD2F8003223F007030B43C2F8003294
S315080027506FE6002106E0022104E0032102E00421DD
S3150800276000E00121414AD2F8083223F007030B435F
S31508002770C2F808325DE6012198E6032196E60221B1
S3150800278094E6032043E6022041E601203FE60021C5
S31508002790364AD2F8203223F007030B43C2F8203218
S315080027A047E60221F4E70321F2E70421F0E70121D5
S315080027B0EEE7023C052C04D8DFE804F0090B0D0F00
S315080027C0050700210AE0052108E0042106E00321A7
S315080027D004E0022102E0062100E00121234AD2F8A2
S315080027E0283123F007030B43C2F8283121E60C2CC5
S315080027F005D10322E8E50122E6E50022E4E5002208
S31508002800E2E5023C0F2C09D8DFE804F018080808AE
S315080028100812080808080808080814160021134AA8
S31508002820D2F8603223F007030B43C2F8603200E6A1
S315080028300421F4E70121F2E70221F0E70321EEE79C
S3150800284000210A4AD2F8943223F007030B43C2F850
S315080028509432EEE50421F4E70121F2E70221F0E7DC
S315080028600321EEE7012144E6002142E600800050FC
S3150800287000C0075000A000502DE9F0410646844BE1
S315080028804FF4C0225A6603F598335C6804F00104D5
S3150800289003F5005301225A607E4B5B6813F0020F62
S315080028A0FAD130687C4BD3F88430C3F3001513F0A3
S315080028B0100FF7D1784BD3F88430C3F38113012B6B
S315080028C001D02B4606E0754B984200F2D8802B467D
S315080028D000E00133182B0AD81A0171498A58904228
S315080028E0F7D301EB031252689042F2D800E00023B6
S315080028F0192B00F0C6806A4A02EB0313D3F8088046
S31508002900D86848BB8020FFF79DF805282BD00027FC
S31508002910644BDB6813F0060FFAD1624B9A68C3F86A
S3150800292008809B6883EA080313F4F8137DD1B188FD
S31508002930F28842EA01425749CA60B268032A31D08E
S31508002940092A66D0082A37D15749D1F8002142F01A
S315080029500302C1F800212FE0FEF7B4FE00F07F0065
S3150800296048EA0008CEE70CF026FA0CF006FCFEF75B
S31508002970FDFC4FF4C070FEF7CFFF0546012803D0D3
S31508002980022808D00027C3E702214FF4C070FFF7DA
S315080029904DFB0127BCE704214FF4C070FFF746FB47
S315080029A00127B5E7A1F5A031D1F8002122F00302ED
S315080029B042F00102C1F80021327D002A33D00422F8
S315080029C0717D01B140231343327B43EA42033269E6
S315080029D01343304A93603068FEF79EF800262D4B65
S315080029E003F500520721116103F5805301225A604D
S315080029F0284B1C6914F00704FAD08020FFF722F848
S31508002A00052819D0002E3ED1012C3ED03046BDE80F
S31508002A10F0812549D1F8002122F0030242F0020292
S31508002A20C1F80021C8E71A46CAE71E4B9A600CB1DE
S31508002A300126D4E70126E0E7DFB90EF097FB054645
S31508002A400EF06EFB0EF06CFB134BD3F8843013F0CC
S31508002A50100FF9D1104BD3F88410C1F38111C1F1CD
S31508002A60020128460CF07EFBFFF766FBFEF7DAFF4D
S31508002A70C8E729464FF4C070FFF7D8FADDE7002605
S31508002A80C4E70026C2E70026C0E70126BEE700BF66
S31508002A900090005000C0015000400050005A6202E9
S31508002AA0DC130108000001500080005010B50446F0
S31508002AB0FEF764FC0A4B4FF400225A6620F0407079
S31508002AC0084A944206D0084A944206D04FF0B442C7
S31508002AD0906010BD40F00070F8E740F08070F5E7B0
S31508002AE00090005040420F0080841E00034AD36EB7
S31508002AF023F0300301790B43D3667047004000503A
S31508002B00F8B50446204BD3F8843013F0100FF9D1EA
S31508002B101D4BD3F88430C3F381139C422DD00EF09D
S31508002B2005FB0646012C11D00EF023FC0546164F70
S31508002B3007F500534FF000725A6620460CF024FB46
S31508002B40621E4FF4806393403B6706E001210CF058
S31508002B5009FBE9E70C4BD3F884300B4B5B6E13F09B
S31508002B60007F05D1084BD3F8843013F0200FF1D03D
S31508002B7028460EF0F9FB022C00D0F8BD002130469D
S31508002B800CF0F0FAF9E700BF0040005010B50C460B
S31508002B90034650B1094A127812B1094A934208D934
S31508002BA021460220FFF7ACFF10BD0EF0BFFA034620
S31508002BB0F0E721460120FFF7A3FFF5E7400D0020C7
S31508002BC0005A620238B52F4B4FF000425A6603F599
S31508002BD00B235C6C04F001044AF6CD321A64E8B99A
S31508002BE0294B5B6B13F00103FAD1274A556815F098
S31508002BF0010539D002F50052012151601A462249D1
S31508002C00096B11F0010F04D120498A4201D801321B
S31508002C10F5E71E498A422FD81D4625E000231A4AA1
S31508002C20126B12F0080F04D0184A934201D80133E8
S31508002C30F5E7164A934221D8134B03F50052202193
S31508002C40916203F5805301225A60002300E00133A4
S31508002C500D4A926A12F0200F02D10C4A9342F6D915
S31508002C600A4A93420CD8002514B1074B084A1A643D
S31508002C700DF058FF284638BD0725F5E70725F3E781
S31508002C800725F1E700900050004009503F420F0029
S31508002C903254FFFF10B51A4B4FF000425A6603F53F
S31508002CA00B235C6C04F001044AF6CD321A644378AF
S31508002CB05B0043F00103134AD363134B5B6B13F0BA
S31508002CC00B0FFAD1104A536823F4F873817843EA54
S31508002CD001135360C178437943EA0123936001796C
S31508002CE0837943EA012313610078FFF76BFF14B178
S31508002CF0054B064A1A640DF015FF012010BD00BFEA
S31508002D000090005000400050004009503254FFFF28
S31508002D1010B50F2800D90F20124B5C6E03F58053AF
S31508002D204FF000425A6603F50B235A6C02F0010273
S31508002D304AF6CD3119640C4B5B6B13F0800FFAD150
S31508002D4009490B6A23F00F0303430B620AB1074ACA
S31508002D500A64002C03DB064B4FF000425A660DF05E
S31508002D60E1FE10BD00800050004009503254FFFFBC
S31508002D7000A0005010B5134B5C6E03F580534FF05E
S31508002D8000425A6603F50B235A6C02F001024AF612
S31508002D90CD3119640C4B5B6B13F0800FFAD10A49DD
S31508002DA00B6A23F4F85343EA00230B620AB1074A75
S31508002DB00A64002C03DB064B4FF000425A660DF0FE
S31508002DC0B1FE10BD00800050004009503254FFFF8C
S31508002DD000A00050054B984206D0054B984201D0FA
S31508002DE00020704757207047562070470000015B47
S31508002DF000000A5010B504460CF0C7F9042307E092
S31508002E0004F5805304221A6104F500531A610B462F
S31508002E10591E002BF4D1202323610023E360A3600D
S31508002E2041F202026261A361A3654FF4A0226262C5
S31508002E30E3612362A362E3626363236504F50052D8
S31508002E400149D164236310BDFF3F0D03F8B504465D
S31508002E5015460846E1B1A36813F0010F34D0666839
S31508002E60B0FBF5F0451E16F001062BD0636D13F086
S31508002E70280FFBD1A36C13F0030F0FD1A36C13F02B
S31508002E80010F1BD1A36C13F0020F19D1002706E01E
S31508002E902046FFF79FFF0BF095FFDCE70527204646
S31508002EA00CF073F9236923F07F4343EA0563236132
S31508002EB06EB3394620460CF087F928E00927EEE775
S31508002EC00627ECE70027EDE76368A36D13F0010F0B
S31508002ED000D06D00A36803F0E003402B1DD017D97E
S31508002EE0602B1ED0802B12D10123400105FB03F372
S31508002EF0B0FBF3F020380C4A02EAC002636D13F007
S31508002F00010FFBD12263636D13F0010FFBD1F8BDEE
S31508002F102BB1202BFBD10823E7E70623E5E710238F
S31508002F20E3E70423E1E700BFF8FF7F00F8B50446AE
S31508002F300D4617461E46436823B1616DC1F30B0162
S31508002F400029FAD12046FFF755FF636923F44C534D
S31508002F5023F00F036A7B1343EA8913432A8A134330
S31508002F606361A36823F0804323F0E2032A7B1343BB
S31508002F702A7E13436A691343A360AB681BB9A36827
S31508002F8043F00043A360EB69002B69D0A2687B4934
S31508002F9011401A7A41EA82519A7A41EA42419A885C
S31508002FA002F4C04211435A7841EA82015A7B41EA47
S31508002FB0C2019A7B41EA02119B7841EA8321A1600A
S31508002FC0E2686F4B1340EA6911690B4351690B4379
S31508002FD0917943EA8123D27943EA4223E360EB6994
S31508002FE01B78012B01D0032B03D1E36843F00403BC
S31508002FF0E360EB691B78023BDBB2012B67D9614BB7
S315080030009C427CD0604B9C4277D04FF0FF335B01EB
S3150800301003F1A04303F5703342F29442022199501A
S31508003020EB695A7A04F580539A62EB695B7A1BB1AD
S31508003030E36843F40063E360EB69DB7A4BB1E3686A
S3150800304043F40043E3604F4B9C425AD04E4B9C429C
S315080030505ED0636A23F00303EA69D27B1343636293
S315080030603FB197F82030002B5AD004F5805301223F
S315080030701A62DEB12B7E23B104F580534FF4004269
S315080030809A65404B9C425CD03F4B9C4257D0A36DFF
S3150800309023F4F95323F01E0396F821201343728C68
S315080030A01343A36504F5805301229A6504F58053FA
S315080030B001225A60AA68002A5BD1297820460CF0BA
S315080030C083F8A36CDB4313F4405FFAD1F8BD2D4BAC
S315080030D09C4210D02C4B9C420BD04FF0FF335B0127
S315080030E003F1A04303F5703341F29442022199504B
S315080030F096E70123F3E70023F1E7012387E7002397
S3150800310085E7EB691B7B03F00F03204A53679DE7AE
S31508003110EB691B7B03F00F031C4AC2F8803098E763
S31508003120E36923F0090397F82220134397F821202F
S31508003130134343F0010304F58052D36199E7012351
S3150800314000E0002396F82120102A0AD8104A012107
S31508003150D154728CB2F5006F07D80E4A0121D154AA
S3150800316095E70B4A0221D154F3E70A4A0221D154C2
S315080031708DE769682046FFF769FE9EE7E39BBDFF7A
S31508003180FFF9F0870000015B00000A500090035029
S31508003190480D0020440D0020F8B504460D461E468D
S315080031A017463AB1FBB101228A4000EB40010901FA
S315080031B01D4B5A50072D1ED8A90004EB44031B01CA
S315080031C007FA01F20F2000FA01F1184818440CF02A
S315080031D032F83FB9FEB10122AA4004EB44042401A7
S315080031E0114B1A51F8BD01228A4000EB4001090132
S315080031F00F4B5A50DEE7A5F108039B0004EB440C7D
S315080032004FEA0C1C07FA03F20F219940094860445B
S315080032100CF011F8DDE70122AA4004EB440424016E
S31508003220034B1A51DEE700BF40D0035034C00350A9
S3150800323040E003503CC0035010B515200CF033FA9B
S31508003240074B00245C65FF229A625C6021462020B9
S31508003250FEF7CAFB21462120FEF7C6FB10BD00BFBC
S315080032600000045029B9044A012303FA00F010604B
S315080032707047024AF8E700BF401004504020045047
S3150800328010B5044601212020FEF7AEFB01212120BE
S31508003290FEF7AAFB114B01225A60227812069A60A1
S315080032A06178A27842EA01429A61FF229A62002274
S315080032B09A631A644FF000425A6503F500534FF0BB
S315080032C0FF321A65152000F037FDE17815200CF05D
S315080032D0F2F915200CF0EBF910BD00BF0000045000
S315080032E070B50C46C3B201259D40214901F500532E
S315080032F01D65830003F1A04303F5882326685E60F5
S31508003300637B00EB400C01EB0C1CCCF8603094F8A6
S315080033100AE0E37A1B0543EA0E4394F80CE043EA15
S315080033204E53CCF85C3022F00302CCF870200EF035
S3150800333029F8104B5D65237A0BB10E4B1D64637A31
S315080033400BB10C4B9D632379A27942EA0342084BE1
S3150800335003F500518A6194F805C0E27942EA0C4205
S3150800336003F58054A2614D639D640EF006F870BDA6
S31508003370000004500010045010B5C0B20124844067
S315080033800EF000F8044B5A6D22EA04025A659C6254
S315080033900DF0F3FF10BD00BF0000045010B5C0B219
S315080033A0012484400DF0EEFF084BDB6A234205D169
S315080033B0064B5B6B9C4306D0002400E000240DF00E
S315080033C0DCFF204610BD0124F9E700BF00000450C9
S315080033D070B50446C3B201259D400DF0D3FF084BD6
S315080033E05E6B04EB440403EB04135C6E0DF0C5FF3F
S315080033F0354203D1C4F30A10013070BD0020FCE742
S3150800340000000450074B4FF480325A6603F5E62352
S315080034109B69C3F38512827003F03F0242701B0B4F
S31508003420037070470090005010B4184CA04211D099
S3150800343004F58044A04219D004F58044A04217D070
S3150800344004F58044A04215D004F58044A0420AD170
S31508003450042000E000207BB100EB400001EB4000B7
S3150800346080000B4B1A505DF8044B70470120F2E7B9
S315080034700220F0E70320EEE7120200EB400001EB22
S3150800348040018900024B5A50EDE700BF0080045006
S315080034904881035010B5044600F5805301221A638B
S315080034A00223C36000238360836100F500521E492E
S315080034B0516103624FF6FF72C261436209E0D91C8B
S315080034C004EB411100224A6004EB43118A660A673D
S315080034D00133022BF3DD4CF68063C4F8FC3000237D
S315080034E0C4F8EC30C4F8F0301F23C4F8F83020468E
S315080034F00BF0AFFE04F5005301221A63236B13F099
S31508003500020FFBD10023636004E0DA1C520100219C
S31508003510A1500133022BF8DD0023C4F8E030C4F8CB
S31508003520E830C4F8E43010BD77007707064B9842B8
S3150800353004D000F580508023C3657047A3F5103387
S31508003540C3F8C811F5E700BF00C0055000F5805361
S3150800355001225A6040F6AA63436100238360C3656B
S3150800356041F20502C2600361C361C36400F50052FB
S31508003570074991648365074B984204D000F50050CB
S31508003580012343607047002303654365F6E700BFE0
S31508003590FFFF010000C005502DE9F84305460C461B
S315080035A0164690F8008040782F4BD3F81033B1F1C7
S315080035B0FF3F2FD0002C2ADB072C32DC4FEA840988
S315080035C0032707FA09F708FA09F2394627480CF0DB
S315080035D022F86A7802F0030202FA09F23946244808
S315080035E00CF019F816F0050F31D00123A340214A33
S315080035F0C2F8103416F0060F2FD00123A3401D4A37
S31508003600C2F814340123A3401B4AC2F820342046CA
S31508003610BDE8F883144BD3F824140CF00AF80446D2
S31508003620C8E7A4F10807BF004FF0030909FA07F92C
S3150800363008FA07F2494611480BF0EDFF6A7802F0DE
S315080036400302BA4049460E480BF0E5FFCAE70123D4
S31508003650A340094AC2F81034CCE70123A340064A1E
S31508003660C2F81434CEE700BF00C0035000C40350AC
S3150800367008C4035000D0035000E0035004C40350AC
S315080036800CC4035038B504460DF07FFA864640B997
S31508003690054DA446BCE80F000FC59CE8030085E865
S315080036A00300704638BD00BF4C0D002047F6FF7377
S315080036B09A427FD002297FD870B5414B13F801E0B2
S315080036C0BEF1010F01D9002070BD3E4B03EBCE01C0
S315080036D091F802C0604613F83E30012B26D0394BCC
S315080036E003EBCE035C68002C68D0B4F90030934233
S315080036F004DBB4F90230934200DC1346A288FF2AA1
S315080037002CD000212826C8221D46D21A92FBF6F292
S315080037100A4412B22B4B03EBCE0393F801E096450D
S3150800372001DD002A2FDA0EF1FF322CE0CB78A3EB6D
S315080037300C0300249C420ED2191BA3EB510121480D
S3150800374000EBCE00406830F91100904201DC0C46CF
S31508003750F0E74B1EEEE76344D8B2B5E7B4F90620A6
S31508003760B4F908600121CFE75C331749A1FB0313BD
S315080037709B09013212B2164696450FDD04EBC201CB
S31508003780898899420AD304EBC2018B68B1F90610FD
S3150800379001FB0533002BE7DA0023E5E7013E04EBDE
S315080037A0C604A2889A4200D31A46944500D8104601
S315080037B0C0B289E7FF20704700207047002083E7E2
S315080037C06C1501084C0D0020D34D621002296FD8E4
S315080037D03A4B5B5C012B6DD8394911F83310012936
S315080037E02AD010B4364901EBC3014C68002C63D0CB
S315080037F0201D334901EBC3018978914234D23049FF
S3150800380001EBC301C978914233D92D4901EBC303B2
S3150800381093F801C00CF1FF3C5FFA8CFCA388FF2BE0
S315080038202AD00023634529D2591C30F83110914219
S3150800383024D30133DBB2F5E7214901EBC301C9788B
S31508003840914200D20A461E4800EBC3008078121A3D
S31508003850D2B2091A8A4200DD0022194901EBC303D4
S315080038605B6833F912007047B4F902005DF8044B3F
S315080038707047B4F90000F9E70123D3E74FF47A71EA
S3150800388001FB02F200EBC3004368D31AB0F9022029
S3150800389002EBD27103EB610393FBF2F3B4F9000078
S315080038A09842E3DBB4F902009842DFDC18B2DDE7A0
S315080038B004487047034870470248D7E76C15010863
S315080038C04C0D00200080FFFF08B50348FFF7DAFE1D
S315080038D001200DF05EF908BD7015010830B583B0FA
S315080038E004460DF058F908B103B030BD69462046C4
S315080038F00DF04DF900B1FEE79DF80030124A127836
S315080039009342F1D00C2B06D164250F4920460DF0C1
S315080039102BF928B1FEE7204606F0C4FA0546F4E777
S31508003920294620460DF007F900B1FEE7064B1B783D
S31508003930042BD9D1694620460DF029F99DF80020B7
S31508003940014B1A70D0E700BF7CBF002010B586B0C7
S315080039500DF1040C1A4C0FCCACE80F002368CCF818
S315080039600030FF238DF80530164BD3F84C3113F48D
S31508003970802F05D1134BD3F8503100238DF805302D
S315080039809DF80530FF2B0BD09DF80530FF2B12D084
S3150800399001A8FEF7B7FA3220FEF7F8FA06B010BD0E
S315080039A04FF07E6393F89C2093F99C30002BEBDB59
S315080039B08DF80520E8E73F238DF80530E8E700BFD6
S315080039C0EC1501080080E00F10B58AB0EC46194CDA
S315080039D00FCCACE80F000FCCACE80F0094E803005E
S315080039E08CE80300144BD3F84C3113F4002F05D0A0
S315080039F0124B1C88FF2C05D98C2403E00E4BD3F8F8
S31508003A005041E4B28DF81940FEF776FA241803D42B
S31508003A10FF2C02DDFF2400E000248DF8184008483A
S31508003A20FDF780F86846FEF795F93220FEF7B4FAF6
S31508003A300AB010BD001601080080E00F0001E00F73
S31508003A40C017530210B586B0002300930193029362
S31508003A50039304930593184B009340F6FF63ADF860
S31508003A60043040F27F73ADF80630012304938DF8D5
S31508003A701430032302938020FDF7E4FF044605284B
S31508003A8009D00E480DF08AFC6846FEF7F5FE052CAF
S31508003A9009D006B010BD0A4A136F23F0070343F096
S31508003AA001031367EDE7064A136F23F0070343F094
S31508003AB002031367EDE700BF802FA604401601082E
S31508003AC00080005008B50248FEF7F0FF08BD00BFA9
S31508003AD0C0EA210108B503480DF060FC0020FEF796
S31508003AE061FA08BD3416010810B5FEF711FB4E4CF5
S31508003AF0236F23F0070343F0020323670020FEF732
S31508003B002DFB236F23F4744343F480632367474BE9
S31508003B10D3F8FC1011F0807106D01A46D3F8FC30A1
S31508003B2023F08073C2F8FC303F4BD3F8802022F094
S31508003B30030242F00102C3F8802003F580530022F5
S31508003B40C3F8802031B1394AD2F8FC3043F080738B
S31508003B50C2F8FC30344CD4F8203123F0070343F084
S31508003B600103C4F82031D4F8283123F0070343F0C1
S31508003B700103C4F82831D4F8803123F0030343F055
S31508003B800103C4F88031D4F8403123F0030343F02D
S31508003B900203C4F84031D4F8603123F0030343F03C
S31508003BA00203C4F86031D4F8403223F0030343F02B
S31508003BB00203C4F84032D4F8003223F0070343F076
S31508003BC00203C4F80032D4F8083223F0070343F09E
S31508003BD00203C4F80832D4F8703223F0030343F022
S31508003BE00103C4F87032D4F8203223F0070343F0F7
S31508003BF00103C4F82032FEF793F84FF0E022136968
S31508003C0043F004031361D4F8603223F0070343F04A
S31508003C100103C4F86032D4F8943223F0070343F062
S31508003C200103C4F8943210BD0080005000ED00E096
S31508003C3008B508480DF0B2FBFFF788FEFFF7C4FE8B
S31508003C40FFF700FFFFF73EFFFFF744FFFFF74CFFC4
S31508003C50002008BD3016010800B583B0094B93E86B
S31508003C6003000090ADF80410090C8DF8061068469C
S31508003C70FFF710F80920FFF74BF8002003B05DF8AE
S31508003C8004FB00BF2816010810B582B0074A536F17
S31508003C9043F001035367002400948DF804406846F6
S31508003CA0FEF724FF204602B010BD00BF00400050BA
S31508003CB0002808DB0901C9B200F1604000F561403F
S31508003CC080F80013704700F00F000901C9B2014BD4
S31508003CD01954704714ED00E0002807DB00F01F02B6
S31508003CE0400901239340024A42F82030704700BF3A
S31508003CF000E100E000280CDB00F01F024009012368
S31508003D0093402030034A42F82030BFF34F8FBFF369
S31508003D106F8F704700E100E04211064B53F82230DE
S31508003D2000F01F0023FA00F080F0010000F0010007
S31508003D30704700BF00E100E0002808DB00F01F0222
S31508003D404009012393406030014A42F82030704709
S31508003D5000E100E010B50DF015FB0B4B1B783BB9E5
S31508003D60094B01221A700DF008FB6FF0040408E0F5
S31508003D700DF003FB07E0052120460BF09CFC0134FF
S31508003D8064B24B2CF7DD10BD27BF002010B50446E2
S31508003D900DF0EFFA024B1C600DF0E6FA002010BD9C
S31508003DA0640D002010B50DF0E4FA034B1C680DF005
S31508003DB0DBFA204610BD00BF640D00202DE9F04156
S31508003DC08EB007460E4614461D461368D3F8008083
S31508003DD091F83130002B48D00DF1180CDFF830E29D
S31508003DE0BEE80F00ACE80F009EE80F008CE80F0055
S31508003DF00023009301930293039304930593A36806
S31508003E000893237B012B3DD0022B3ED14FF4407300
S31508003E10ADF82630607B0BF092FCADF82800CDF8A3
S31508003E2034D001238DF80630A37B022B04D0032B54
S31508003E3002D0012B00D000238DF80030B36B6E4AF8
S31508003E401A60B36B6D4A5A60B36B00229A60B36B03
S31508003E506B4ADA6032462946384600F0AFFA07461A
S31508003E60A8B138460EB0BDE8F0810DF1180CDFF8A0
S31508003E70A4E1BEE80F00ACE80F009EE80F008CE84E
S31508003E800F00B5E74FF40073C2E70023C0E72369C4
S31508003E90C5F8A430237E85F8AB30E37D85F8AA30D3
S31508003EA0A37D85F8A930637D85F8A830A37E85F8BB
S31508003EB0AD30637E85F8AC30237F85F8AF30E37E7E
S31508003EC085F8AE302368C5F8A0304E480DF066FA7E
S31508003ED001230422A17D607DFFF75EF901230222FA
S31508003EE0217EE07DFFF758F9002385F8B030206978
S31508003EF00DF054FA96F83130002B5ED006A94046EC
S31508003F000BF08DF995F8B03043F0040385F8B0301E
S31508003F10227D3D4B03EB42121421C2F89414617DB5
S31508003F20A07D227D41EA004103EB4212C2F8AC149F
S31508003F30E27D207E217D42EA0042253103EB4113D2
S31508003F405A60A37B012B3DD0032B3BD0A37B023BBE
S31508003F50DBB2012B43D995F8B03013F0010F0CD022
S31508003F60627EA17E237D42EA01425B0103F1A04302
S31508003F7003F5703341F29C415A5095F8B03013F06E
S31508003F80010F11D0227D204B03EB421241F29441DE
S31508003F9002205050E27E207F217D42EA004203EB58
S31508003FA0411303F5A5531A6008F50053174ADA6456
S31508003FB0052140460BF008F953E706A940460BF0E1
S31508003FC034F9A5E795F8B03043F0010385F8B03029
S31508003FD000230222A17E607EFFF7DEF8B6E795F899
S31508003FE0B03043F0020385F8B03000230422217F65
S31508003FF0E07EFFF7D1F8AEE767F7000807F8000894
S3150800400081F700083816010800C00350FF3F0D036A
S31508004010501601087016010830B583B0007D104BA4
S3150800402000EB400203EB0212D56E00EB400203EBF5
S3150800403002131C6F0DF107010DF02CF99DF80730DE
S315080040404BB904F00204074B9D4201D0002003E05F
S3150800405024B1002000E0012003B030BD0120FBE7B9
S315080040600000045028BF0020037D0E4A03EB4301DD
S3150800407002EB0111C96E03EB430302EB0312136F44
S3150800408003F00203084A914201D0002070470BB999
S3150800409000207047036A006D984214BF0020012073
S315080040A0704700BF0000045028BF002030B583B019
S315080040B003464169026902F1FF3CC5684C6F01F18C
S315080040C07C020020C86750609060D060B1F87C0020
S315080040D06CF30E10A1F87C0091F87E0040F01000F9
S315080040E081F87E0091F87F0040F0300081F87F006B
S315080040F0C1F88050C1F88440012081F88C0091F8FD
S3150800410078000093024B6431FDF722F803B030BD06
S31508004110B5FB00082DE9F04184B0044600F13806E5
S3150800412000F11808002585637560B560F56090F89C
S315080041303A3043F0100380F83A3090F83B3043F0B9
S31508004140030380F83B30494FC7630764007DFDF7DA
S315080041502BF8A5637560B560F56094F83A3043F0BE
S31508004160100384F83A3094F83B3043F0030384F89C
S315080041703B30E7632764207D00EB40031B0103F116
S31508004180A04303F58023DB6EBB4219D00DF10F0166
S315080041900DF080F89DF80F30ABB194F844306FF30A
S315080041A0410384F844300094314B32462146207D41
S315080041B0FCF7CEFF207DFDF717F804B0BDE8F081C7
S315080041C0FDF712F8F9E720460BF053FB054602A95E
S315080041D0207D0DF083F8029B591E20690023A361F8
S315080041E0E36123626362228B61F30E122283A27E4D
S315080041F042F01002A276E27E42F00302E276E06125
S315080042002562227D1B4902EB420001EB0010056F77
S31508004210C5F3400594F8247065F3410784F82470C3
S31508004220A57E63F30415A576056FF8B265F300005D
S3150800423084F8240002EB420201EB02110A6F921085
S31508004240616A62F39F01616294F8442042F00202B7
S3150800425084F84420D2B263F3000284F844204FEA7B
S31508004260A808636C68F39F0363649CE728BF002073
S315080042701DFA000800000450F0B589B004460E4641
S31508004280007DFCF791FF0DF11F01207D0DF002F86E
S3150800429020460BF0EEFA0546236D83424AD2A26CFD
S315080042A0934216D0238DC3F30A12324462F30E13D7
S315080042B02385236D1E442665A26CE36C13449E4237
S315080042C06FD0236DAB426ED0207DFCF78DFF09B011
S315080042D0F0BD701E276904F128030021A162E1627E
S315080042E021636163B4F828C060F30E1CA4F828C0E3
S315080042F094F82A0040F0100084F82A0094F82B005D
S3150800430040F0030084F82B00E762226394F82A2021
S3150800431061F3041284F82A2023F00302237D42F075
S31508004320020203EB43031B0103F1A04303F58023B9
S315080043301A67BEE79DF81F30B3B9227D1D4802EB08
S31508004340420300EB0313596EC1F30A1131445B6E45
S3150800435023F4FF4323F0700343EA011302EB4202FE
S3150800436000EB02104366A4E70494134B039300235F
S315080043700293019601230093236902462168207D52
S315080043800AF0D2FC237D0B4A03EB430102EB011131
S31508004390496E21F4801103EB430302EB03125166C5
S315080043A087E722658DE7012384F854302046FFF716
S315080043B0B1FE89E7000004501DFA000870B588B000
S315080043C006460C461546A022002120460CF06CF83D
S315080043D0A446AE46BEE80F00ACE80F00DEF8003093
S315080043E0CCF8003004F1640C05F1140EBEE80F0099
S315080043F0ACE80F00DEF80030CCF80030AB6AA364F6
S31508004400EA6AE264236595F8302084F8952095F8E1
S31508004410332084F89620C4F89830012384F89C3019
S3150800442084F85430AB6B23663460374B7360374B74
S31508004430B360374BF360374B7361374BB361374B18
S315080044403361FCF753FE10B1354A904253D100212F
S3150800445007A8FCF7C9FD00284FD19DF81C30237525
S31508004460002107A8FCF7C0FD00283FD19DF81C30A5
S3150800447084F87830207DFCF797FE002840D1E36C5D
S315080044800494284A0392002202920193012300937E
S315080044902369A26C2168207D0AF046FC90BB237D27
S315080044A003EB43031B0103F1A04303F5802342F208
S315080044B064024FF480119950AB6B93F91000FFF723
S315080044C03BFCAB6B93F910000BF0F1F804F190008C
S315080044D00AF00CFC3046FFF759FC2046FFF71AFE97
S315080044E0207DFCF781FE48B1102007E0207DFCF70F
S315080044F0D3FD102002E0102000E0102008B070BDA7
S315080045001020FBE71020F9E7C3F90008D7F90008DF
S315080045107DFB000867F800086DF80008F9FB00083D
S31508004520038000F01DFA00080346064A1068034493
S31508004530054A934202D8034A136070474FF0FF308A
S31508004540704700BF84BF002000000420BFF34F8FD0
S315080045500549CA6802F4E062044B1343CB60BFF313
S315080045604F8F00BFFDE700BF00ED00E00400FA052D
S31508004570BFF35F8F074B5A6A22F480325A62D3F828
S31508004580942022F00102C3F89420BFF34F8FBFF3A3
S315080045906F8F704700ED00E070B5FFF7E9FFA022C6
S315080045A0002121480BF057FB204B21498B4206D0AE
S315080045B021F01F02203AB2F1005F0FD300E01D4A36
S315080045C01D4D286842F001021C4CC4F898001C4E88
S315080045D0C4F89C60C4F8A020013028608B4210D033
S315080045E01F3323F01F0343F00303134802681349DC
S315080045F0C1F89820C1F89C30124BC1F8A03001329E
S315080046000260BFF35F8F0D4B0522C3F894205A6AE8
S3150800461042F480325A62BFF34F8FBFF36F8FBFF3F6
S315080046204F8FBFF36F8F70BD90ED00E060BF002025
S3150800463060BF002000000420680D002000ED00E0A7
S3150800464003000020E1FF032000B583B001A8FEF7B0
S31508004650D9FE9DF80530012B02D003B05DF804FBA6
S315080046609DF80430002BF8D10A4B596E03F5805398
S315080046704FF480125A66084A536B23F0E05343F00E
S315080046804063536311F4801FE7D1044B4FF4801243
S315080046905A66E2E7008000500040005A00A0005029
S315080046A02DE9F04F91B0804617460F9389460029A9
S315080046B000F0408300260F9B1878002800F03D8301
S315080046C0252809D0741C3B4632464946C0470F9BED
S315080046D001330F932646EEE701330F9300251FE0BB
S315080046E045F0010501320F92012318E045F0020555
S315080046F001320F92012312E045F0040501320F92B0
S3150800470001230CE045F0080501320F92012306E06B
S3150800471045F0100501320F92012300E000234BB348
S315080047200F9A1378203B102BF8D801A151F823F0E3
S31508004730054700081D4700081D47000811470008DF
S315080047401D4700081D4700081D4700081D470008AB
S315080047501D4700081D4700081D470008F9460008C0
S315080047601D470008ED4600081D4700081D470008BC
S31508004770E14600080B930F9B1A78A2F13003DBB2CF
S31508004780092B18D92A2A1BD0DDF82CB00F9B1A78CA
S315080047902E2A25D00F9A1378683B122B5CD8DFE8AF
S315080047A003F0495BAA5B3B5B5B5B5B5B5B5B575BF5
S315080047B05B5B5B5BAF000FA80BF0AFFA8346E5E7E0
S315080047C01A9B1A1D1A921B68002B04DB9B460F9B2B
S315080047D001330F93DAE745F00205C3F1000BF6E75C
S315080047E045F480655A1C0F925A78A2F13003DBB261
S315080047F0092B0CD92A2ACDD11A9B1A1D1A921C6884
S3150800480024EAE4730B930F9B01330F93C2E70FA8B7
S315080048100BF083FA0B90BDE745F48071531C0F9398
S3150800482053786C2B01D00D4616E045F440750232DC
S315080048300F9211E045F08001531C0F935378682BB3
S3150800484001D00D4608E045F0C00502320F9203E09C
S3150800485045F4807501320F920F9B1878672854D853
S31508004860252867D3A0F12503422B63D8DFE813F088
S315080048705702620062006200620062006200620023
S31508004880620062006200620062006200620062000A
S3150800489062006200620062006200620062006200FA
S315080048A062006200620062006200620062006200EA
S315080048B0800162018001620062006200620062009B
S315080048C062006200620062006200620062006200CA
S315080048D06200620062006C006200620062006200B0
S315080048E0620062006200620062006C00A5016C0052
S315080048F080016201800145F4007501320F92ABE731
S3150800490045F4807501320F92A6E7782812D86928EF
S3150800491010D3A0F16902D2B20123934049F24102B1
S31508004920134211D113F0800F40F0DE8113F4806F2B
S3150800493040F07581741C3B4632464946C0470F9B7A
S3150800494001330F932646B6E6782809D062283AD06E
S315080049506F283AD058283AD025F010050A2300E0E7
S315080049601023582835D0692803D0642801D025F0AB
S315080049700C0515F4806F01D025F0010569282BD0A8
S31508004980642829D015F4007F40F0968015F4807FBE
S3150800499040F0AE8015F0400F00F0BF801A9A111D46
S315080049A01A9112780595CDF810B00B9903910293D8
S315080049B00023019300923B463246494640460BF097
S315080049C099FA064629E00223CBE70823C9E710230C
S315080049D0C7E745F02005C6E715F4007F21D115F491
S315080049E0807F42D115F0400F58D01A9A111D1A919E
S315080049F0127882EAE271A1EBE2710595CDF810B062
S31508004A000B9803900293D20F019200913B463246CF
S31508004A10494640460BF06EFA06460F9B01330F9344
S31508004A2049E61A9A073222F0070202F108011A919A
S31508004A30516812680846002913DB0895CDF81CB0A2
S31508004A400B9C0694049300230593C90F02910092C8
S31508004A5001903B463246494640460BF095FA0646D3
S31508004A60DBE7524261EB4100E7E71A9A111D1A91FA
S31508004A70126882EAE271A1EBE2710595CDF810B0F1
S31508004A800B9803900293D20F019200913B4632464F
S31508004A90494640460BF02EFA0646BEE715F0800F4B
S31508004AA005D01A9A111D1A91B2F90020A1E71A9A8F
S31508004AB0111D1A9112689CE71A9A073222F007020A
S31508004AC002F108011A910895CDF81CB00B990691C8
S31508004AD00021049305910291D2E90023CDE9002330
S31508004AE03B463246494640460BF04EFA064694E7A0
S31508004AF01A9A111D1A910595CDF810B00B990391C4
S31508004B00029300230193136800933B4632464946B5
S31508004B1040460BF0EFF906467FE715F0800F04D004
S31508004B201A9A111D1A9112883CE71A9A111D1A91A0
S31508004B30126837E7462818D01A9B073323F007036D
S31508004B4003F108021A9293ED000B0295CDF804B012
S31508004B500B9B00933B46324649464046FBF700FD11
S31508004B6006460F9B01330F93A5E545F02005E3E7BD
S31508004B70672801D0472801D145F40065452801D0AA
S31508004B80472801D145F020051A9B073323F0070370
S31508004B9003F108021A9293ED000B0295CDF804B0C2
S31508004BA00B9B00933B46324649464046FBF7E0FAE4
S31508004BB006460F9B01330F937DE515F002051DD0C0
S31508004BC001241A98031D1A9306F1010A3B46324638
S31508004BD049460078C047A5B90F9B01330F9356463F
S31508004BE069E502F1010A3B4649462020C0472346AB
S31508004BF052465C1C9B45F4D81646E2E7012332462A
S31508004C00F7E7524606E0561C3B4649462020C04771
S31508004C102C463246651CA345F5D89246DCE71A9B16
S31508004C201A1D1A92D3F800A00B9BFBB94FF0FF325E
S31508004C30534601E001330A46197811B1511E002A7C
S31508004C40F8D1A3EB0A0315F480620C9203D00B9AF1
S31508004C50934228BF134615F0020409D00D94CDF8E7
S31508004C6038B00B9D32460C9E9B461FE00B9ADFE739
S31508004C703246264606E0541C3B4649462020C04795
S31508004C802B4622465D1C9B45F5D834462B460D948B
S31508004C90CDF838B00B9D0C9E9B4607E01D460AF1E1
S31508004CA0010A541C3B464946C04722469AF800006A
S31508004CB020B1002EF3D06B1E002DEFD10D9C1646A9
S31508004CC05B46DDF838B054B90F9B01330F93F2E415
S31508004CD0551C3B4649462020C04723462A465C1CAD
S31508004CE09B45F5D81646EFE745F021051A9B1A1D90
S31508004CF01A921B680595082204920B9A03921022B1
S31508004D0002920022019200933B46324649464046AB
S31508004D100BF0F0F806460F9B01330F93CBE4741C97
S31508004D203B46324649462520C0470F9B01330F9321
S31508004D302646C0E4DFF81C80BCE4BE4208D37A1ECF
S31508004D403B4649460020C047304611B0BDE8F08FC3
S31508004D503246F5E719FD00080FB400B585B006AA76
S31508004D6052F8043B039200924FF0FF3202A904481E
S31508004D70FFF796FC05B05DF804EB04B0704700BF7A
S31508004D804B0001080CB410B584B00A4606AC54F8BA
S31508004D90043B0394009401460348FFF781FC04B0E2
S31508004DA0BDE8104002B0704711FD000800B583B099
S31508004DB0009313460A4601460248FFF771FC03B002
S31508004DC05DF804FB11FD000810B501F009FD00208F
S31508004DD000F0E0F90446064800F0C2F8FEF7D6FFF0
S31508004DE00448FFF7B9FF02F073FA204610BD00BF6A
S31508004DF0F816010800170108012803D8024B53F8D2
S31508004E002000704700207047F8170108012803D8CA
S31508004E10024B03EB8000704700207047700D00209E
S31508004E2008B5054A002313605360044A136001F06D
S31508004E3077FD034B186008BD700D0020780D002023
S31508004E406C0D0020014B01221A70704729BF002003
S31508004E5008B502F05BF8294A13680133136001F0BC
S31508004E605FFD274B1B68C31A264A12689A4203D26B
S31508004E70244A1360214A5360214B186002F028FA2D
S31508004E80214B1B781BB1204B00221A7008BD02F07B
S31508004E904FF81D4B1B781BB11B4B00221A70F5E708
S31508004EA001F096FA184B1B781BB1174B00221A70A3
S31508004EB0ECE70BF0E7F9144B1B781BB1124B0022F9
S31508004EC01A70E3E701F024FF01F0F0FB0E4B1B78A4
S31508004ED01BB10D4B00221A70D8E70BF02FFA0A4BBC
S31508004EE01B783BB9084B1B78002BCFD0064B00220A
S31508004EF01A70CBE7044B00221A70C7E7700D002022
S31508004F006C0D0020780D002029BF002008B5024846
S31508004F100AF00DFB08BD00BF0040005B08B5064B54
S31508004F201B681BB1013B044A136008BD0BF075F9F9
S31508004F3001F096FBF9E700BF88BF002038B5144694
S31508004F401D4605494FF0010C81F800C00349C1E927
S31508004F5000450BF07FF938BD2ABF00200008002065
S31508004F6070B5054600240CB1002070BD054B53F8FA
S31508004F702460294670680BF0AFFA08B10134F2E7ED
S31508004F803068F2E79CBF00200023062073B1704703
S31508004F9054B224B9013353B15DF8044B7047022863
S31508004FA0F8D008680A4908601046F3E710B4094AB9
S31508004FB052F823100A7A022AEAD9032AEAD1441EA9
S31508004FC0E4B2012CE6D90868014908601046E1E711
S31508004FD0A40D00209CBF002010B5A2B020242246B4
S31508004FE000211AA80BF060FA284B1A93284B1C9339
S31508004FF002238DF87530274B1E9307238DF87E30D4
S3150800500008238DF880300021159116911791189173
S3150800501019914FF4702315931F4B19931091119101
S315080050201291139114911D4B10931D4B14933C220E
S3150800503001A80BF039FA0DF1040E0DF1540CBCE879
S315080050400F00AEE80F00DCF80030CEF800300DF1A6
S31508005050180E0DF1400CBCE80F00AEE80F00DCF8A6
S315080050600030CEF800300F4B0B930C9401238DF8CB
S3150800507035308DF836300C4B0F930C4B1AAA01A914
S315080050800B48FEF79BFE22B010BD00BF4416010870
S3150800509080841E003C1601083C00015B01000F00DD
S315080050A04400015BA80D0020B0BF0020C80D0020F9
S315080050B07C0E002008B502480AF0ADFB08BD00BF0B
S315080050C07C0E002008B502480AF0A5FB08BD00BF03
S315080050D07C0E002010B58AB0002306930793089328
S315080050E00993254B0693254906A804F0B9FC244BD9
S315080050F0186030B10023059305A90BF075FD08B1BA
S31508005100FEE7FEE71E4C1F4A1F4B1968206804F08D
S31508005110B3FE002120680AF0ACFA00B1FEE71B498D
S31508005120174B186804F0D4FE00B1FEE74FF0FF32C3
S3150800513040F2FF33CDE900234FF0FF324FF0FF3343
S315080051400F4908680BF0ECFC00B1FEE7104B1B8812
S31508005150ADF81030ADF80C3004A9094B18680BF0FF
S31508005160C7FC00B1FEE703A9054B18680BF0D6FC8F
S3150800517000B1FEE70AB010BDFD000108DF00010816
S31508005180C4BF0020E90001088CBF002007001100F9
S31508005190781D010882B0054B019302AB03EB800032
S315080051A050F8043C186802B0704700BFC4BF00201E
S315080051B010B58AB001213A20FCF716FC01212920F6
S315080051C0FCF712FC0023032204210220FDF7E4FF6A
S315080051D00023032205210220FDF7DEFF0023032218
S315080051E011460220FDF7D8FF0023042201210846B4
S315080051F0FDF7D2FF0DF1040C1D4C0FCCACE80F00E7
S315080052000FCCACE80F002368CCF8003000238DF8EB
S3150800521011308DF8043005228DF81020154A0392B6
S315080052204FF44072ADF8142001228DF82320ADF812
S3150800523020308DF82230104B104AC3F82427A2F5E7
S315080052408032C3F83427A2F58032C3F838271922EA
S31508005250C3F820270A4C01A920460AF029F904F5C3
S3150800526080541823E36409200AF021FA0AB010BD15
S31508005270BC22010800E02E0000C003500200050011
S3150800528000C0055000B587B000EB0010002304935A
S315080052900E4A0392029380230193012300930C4B39
S315080052A00C4A02EBC0024FF480210B48006809F053
S315080052B03BFD18B9012007B05DF804FB0246074913
S315080052C001200AF064FF0020F5E700BFE15200085C
S315080052D024C00550041400209C0E00207C1D0108E3
S315080052E070B501212D4B19702D4B1A6820321A60A2
S315080052F09A6880329A602B4C23682B4D03EB031374
S3150800530005EBC30383F88010236803EB031305EB4F
S31508005310C303002283F8812026680BF017F806EBF2
S31508005320061605EBC606C6F88400236803EB0313C6
S3150800533005EBC3051D4B1D602368013323602368F5
S31508005340092B01D900222260164B186800EB0010C1
S31508005350154B03EBC0000AF0E3FE80B1114B186849
S31508005360FFF790FF90B1124B1B7833B10F4B1A68B9
S31508005370104B1A60104B01221A70012070BD094BA0
S315080053801A680E4901200AF002FFE7E70C4B0D4A9E
S3150800539040F229210C4803F03DFE00BF2CBF002037
S315080053A054190020B00E002004140020A40E00207A
S315080053B02DBF0020A80E00202EBF0020981D010832
S315080053C0E01D01081C220108E41D010800B587B08C
S315080053D000EB0010002304930D4A039202938023E6
S315080053E00193012300930B4B0B4A02EBC0020B49B6
S315080053F00B48006809F098FC18B9012007B05DF859
S3150800540004FB0246074901200AF0C1FE0020F5E721
S315080054103955000824C00550B40E002001000400C8
S31508005420980E00202C1E010808B501212020FCF743
S31508005430DBFAFBF75BFE18B10246314B984230D1D6
S3150800544000213048FBF7D0FD0246002834D12D4B09
S315080054501A682D4901200AF09AFE00212B48FBF70D
S31508005460C3FD0246002832D1284B1A682849012074
S315080054700AF08DFE274B00221A6027490A60186831
S31508005480FFF700FF70B3254901200AF080FE224B82
S315080054901868FFF79BFF60B3214901200AF077FEE1
S315080054A008BD204901200AF072FE1F4B1F4A40F230
S315080054B0CF211F4803F0AEFD1E4901200AF067FE02
S315080054C0194B1A4A40F2D621194803F0A3FD194987
S315080054D001200AF05CFE144B144A40F2DE211448FF
S315080054E003F098FD104B114A40F2E721104803F0EB
